{
  "contractName": "RealEstateBidding",
  "abi": [
    {
      "inputs": [],
      "stateMutability": "nonpayable",
      "type": "constructor"
    },
    {
      "anonymous": false,
      "inputs": [
        {
          "indexed": true,
          "internalType": "address",
          "name": "owner",
          "type": "address"
        },
        {
          "indexed": true,
          "internalType": "address",
          "name": "approved",
          "type": "address"
        },
        {
          "indexed": true,
          "internalType": "uint256",
          "name": "tokenId",
          "type": "uint256"
        }
      ],
      "name": "Approval",
      "type": "event"
    },
    {
      "anonymous": false,
      "inputs": [
        {
          "indexed": true,
          "internalType": "address",
          "name": "owner",
          "type": "address"
        },
        {
          "indexed": true,
          "internalType": "address",
          "name": "operator",
          "type": "address"
        },
        {
          "indexed": false,
          "internalType": "bool",
          "name": "approved",
          "type": "bool"
        }
      ],
      "name": "ApprovalForAll",
      "type": "event"
    },
    {
      "anonymous": false,
      "inputs": [
        {
          "indexed": true,
          "internalType": "uint256",
          "name": "tokenId",
          "type": "uint256"
        },
        {
          "indexed": true,
          "internalType": "address",
          "name": "bidder",
          "type": "address"
        }
      ],
      "name": "HighBid",
      "type": "event"
    },
    {
      "anonymous": false,
      "inputs": [
        {
          "indexed": true,
          "internalType": "uint256",
          "name": "tokenId",
          "type": "uint256"
        },
        {
          "indexed": true,
          "internalType": "address",
          "name": "realtor",
          "type": "address"
        }
      ],
      "name": "PropOnMarket",
      "type": "event"
    },
    {
      "anonymous": false,
      "inputs": [
        {
          "indexed": true,
          "internalType": "uint256",
          "name": "tokenId",
          "type": "uint256"
        }
      ],
      "name": "PropOnWithdraw",
      "type": "event"
    },
    {
      "anonymous": false,
      "inputs": [
        {
          "indexed": true,
          "internalType": "address",
          "name": "from",
          "type": "address"
        },
        {
          "indexed": true,
          "internalType": "address",
          "name": "to",
          "type": "address"
        },
        {
          "indexed": true,
          "internalType": "uint256",
          "name": "tokenId",
          "type": "uint256"
        }
      ],
      "name": "Transfer",
      "type": "event"
    },
    {
      "anonymous": false,
      "inputs": [
        {
          "indexed": true,
          "internalType": "uint256",
          "name": "tokenId",
          "type": "uint256"
        },
        {
          "indexed": true,
          "internalType": "address",
          "name": "winner",
          "type": "address"
        },
        {
          "indexed": true,
          "internalType": "uint256",
          "name": "price",
          "type": "uint256"
        }
      ],
      "name": "WinnerRevealed",
      "type": "event"
    },
    {
      "inputs": [
        {
          "internalType": "uint256",
          "name": "",
          "type": "uint256"
        }
      ],
      "name": "allTokens",
      "outputs": [
        {
          "internalType": "uint256",
          "name": "",
          "type": "uint256"
        }
      ],
      "stateMutability": "view",
      "type": "function",
      "constant": true
    },
    {
      "inputs": [
        {
          "internalType": "address",
          "name": "to",
          "type": "address"
        },
        {
          "internalType": "uint256",
          "name": "tokenId",
          "type": "uint256"
        }
      ],
      "name": "approve",
      "outputs": [],
      "stateMutability": "nonpayable",
      "type": "function"
    },
    {
      "inputs": [
        {
          "internalType": "address",
          "name": "owner",
          "type": "address"
        }
      ],
      "name": "balanceOf",
      "outputs": [
        {
          "internalType": "uint256",
          "name": "",
          "type": "uint256"
        }
      ],
      "stateMutability": "view",
      "type": "function",
      "constant": true
    },
    {
      "inputs": [],
      "name": "baseURI",
      "outputs": [
        {
          "internalType": "string",
          "name": "",
          "type": "string"
        }
      ],
      "stateMutability": "view",
      "type": "function",
      "constant": true
    },
    {
      "inputs": [
        {
          "internalType": "uint256",
          "name": "tokenId",
          "type": "uint256"
        }
      ],
      "name": "getApproved",
      "outputs": [
        {
          "internalType": "address",
          "name": "",
          "type": "address"
        }
      ],
      "stateMutability": "view",
      "type": "function",
      "constant": true
    },
    {
      "inputs": [
        {
          "internalType": "address",
          "name": "owner",
          "type": "address"
        },
        {
          "internalType": "address",
          "name": "operator",
          "type": "address"
        }
      ],
      "name": "isApprovedForAll",
      "outputs": [
        {
          "internalType": "bool",
          "name": "",
          "type": "bool"
        }
      ],
      "stateMutability": "view",
      "type": "function",
      "constant": true
    },
    {
      "inputs": [
        {
          "internalType": "uint256",
          "name": "",
          "type": "uint256"
        }
      ],
      "name": "market",
      "outputs": [
        {
          "internalType": "uint256",
          "name": "",
          "type": "uint256"
        }
      ],
      "stateMutability": "view",
      "type": "function",
      "constant": true
    },
    {
      "inputs": [],
      "name": "name",
      "outputs": [
        {
          "internalType": "string",
          "name": "",
          "type": "string"
        }
      ],
      "stateMutability": "view",
      "type": "function",
      "constant": true
    },
    {
      "inputs": [
        {
          "internalType": "uint256",
          "name": "tokenId",
          "type": "uint256"
        }
      ],
      "name": "ownerOf",
      "outputs": [
        {
          "internalType": "address",
          "name": "",
          "type": "address"
        }
      ],
      "stateMutability": "view",
      "type": "function",
      "constant": true
    },
    {
      "inputs": [
        {
          "internalType": "address",
          "name": "from",
          "type": "address"
        },
        {
          "internalType": "address",
          "name": "to",
          "type": "address"
        },
        {
          "internalType": "uint256",
          "name": "tokenId",
          "type": "uint256"
        }
      ],
      "name": "safeTransferFrom",
      "outputs": [],
      "stateMutability": "nonpayable",
      "type": "function"
    },
    {
      "inputs": [
        {
          "internalType": "address",
          "name": "from",
          "type": "address"
        },
        {
          "internalType": "address",
          "name": "to",
          "type": "address"
        },
        {
          "internalType": "uint256",
          "name": "tokenId",
          "type": "uint256"
        },
        {
          "internalType": "bytes",
          "name": "_data",
          "type": "bytes"
        }
      ],
      "name": "safeTransferFrom",
      "outputs": [],
      "stateMutability": "nonpayable",
      "type": "function"
    },
    {
      "inputs": [
        {
          "internalType": "address",
          "name": "operator",
          "type": "address"
        },
        {
          "internalType": "bool",
          "name": "approved",
          "type": "bool"
        }
      ],
      "name": "setApprovalForAll",
      "outputs": [],
      "stateMutability": "nonpayable",
      "type": "function"
    },
    {
      "inputs": [
        {
          "internalType": "bytes4",
          "name": "interfaceId",
          "type": "bytes4"
        }
      ],
      "name": "supportsInterface",
      "outputs": [
        {
          "internalType": "bool",
          "name": "",
          "type": "bool"
        }
      ],
      "stateMutability": "view",
      "type": "function",
      "constant": true
    },
    {
      "inputs": [],
      "name": "symbol",
      "outputs": [
        {
          "internalType": "string",
          "name": "",
          "type": "string"
        }
      ],
      "stateMutability": "view",
      "type": "function",
      "constant": true
    },
    {
      "inputs": [
        {
          "internalType": "uint256",
          "name": "index",
          "type": "uint256"
        }
      ],
      "name": "tokenByIndex",
      "outputs": [
        {
          "internalType": "uint256",
          "name": "",
          "type": "uint256"
        }
      ],
      "stateMutability": "view",
      "type": "function",
      "constant": true
    },
    {
      "inputs": [
        {
          "internalType": "address",
          "name": "owner",
          "type": "address"
        },
        {
          "internalType": "uint256",
          "name": "index",
          "type": "uint256"
        }
      ],
      "name": "tokenOfOwnerByIndex",
      "outputs": [
        {
          "internalType": "uint256",
          "name": "",
          "type": "uint256"
        }
      ],
      "stateMutability": "view",
      "type": "function",
      "constant": true
    },
    {
      "inputs": [
        {
          "internalType": "uint256",
          "name": "tokenId",
          "type": "uint256"
        }
      ],
      "name": "tokenURI",
      "outputs": [
        {
          "internalType": "string",
          "name": "",
          "type": "string"
        }
      ],
      "stateMutability": "view",
      "type": "function",
      "constant": true
    },
    {
      "inputs": [],
      "name": "totalSupply",
      "outputs": [
        {
          "internalType": "uint256",
          "name": "",
          "type": "uint256"
        }
      ],
      "stateMutability": "view",
      "type": "function",
      "constant": true
    },
    {
      "inputs": [
        {
          "internalType": "address",
          "name": "from",
          "type": "address"
        },
        {
          "internalType": "address",
          "name": "to",
          "type": "address"
        },
        {
          "internalType": "uint256",
          "name": "tokenId",
          "type": "uint256"
        }
      ],
      "name": "transferFrom",
      "outputs": [],
      "stateMutability": "nonpayable",
      "type": "function"
    },
    {
      "inputs": [
        {
          "internalType": "uint256",
          "name": "propID",
          "type": "uint256"
        }
      ],
      "name": "mint",
      "outputs": [],
      "stateMutability": "nonpayable",
      "type": "function"
    },
    {
      "inputs": [
        {
          "internalType": "uint256",
          "name": "tokenId",
          "type": "uint256"
        },
        {
          "internalType": "address",
          "name": "realtor",
          "type": "address"
        }
      ],
      "name": "assignRealtor",
      "outputs": [],
      "stateMutability": "nonpayable",
      "type": "function"
    },
    {
      "inputs": [
        {
          "internalType": "uint256",
          "name": "tokenId",
          "type": "uint256"
        }
      ],
      "name": "putOnMarket",
      "outputs": [],
      "stateMutability": "nonpayable",
      "type": "function"
    },
    {
      "inputs": [
        {
          "internalType": "uint256",
          "name": "tokenId",
          "type": "uint256"
        },
        {
          "internalType": "uint256",
          "name": "amount",
          "type": "uint256"
        }
      ],
      "name": "bid",
      "outputs": [],
      "stateMutability": "nonpayable",
      "type": "function"
    },
    {
      "inputs": [
        {
          "internalType": "uint256",
          "name": "tokenId",
          "type": "uint256"
        }
      ],
      "name": "revealWinner",
      "outputs": [
        {
          "internalType": "address",
          "name": "",
          "type": "address"
        }
      ],
      "stateMutability": "nonpayable",
      "type": "function"
    },
    {
      "inputs": [
        {
          "internalType": "uint256",
          "name": "tokenId",
          "type": "uint256"
        }
      ],
      "name": "getHighestBid",
      "outputs": [
        {
          "internalType": "uint256",
          "name": "",
          "type": "uint256"
        }
      ],
      "stateMutability": "view",
      "type": "function",
      "constant": true
    },
    {
      "inputs": [],
      "name": "getMarketSize",
      "outputs": [
        {
          "internalType": "uint256",
          "name": "",
          "type": "uint256"
        }
      ],
      "stateMutability": "view",
      "type": "function",
      "constant": true
    },
    {
      "inputs": [
        {
          "internalType": "uint256",
          "name": "tokenId",
          "type": "uint256"
        }
      ],
      "name": "withdrawFromMarket",
      "outputs": [
        {
          "internalType": "bool",
          "name": "",
          "type": "bool"
        }
      ],
      "stateMutability": "nonpayable",
      "type": "function"
    },
    {
      "inputs": [
        {
          "internalType": "uint256",
          "name": "tokenId",
          "type": "uint256"
        }
      ],
      "name": "getBidProcess",
      "outputs": [
        {
          "internalType": "address",
          "name": "",
          "type": "address"
        },
        {
          "internalType": "bool",
          "name": "",
          "type": "bool"
        },
        {
          "internalType": "address",
          "name": "",
          "type": "address"
        },
        {
          "internalType": "uint256",
          "name": "",
          "type": "uint256"
        },
        {
          "internalType": "bool",
          "name": "",
          "type": "bool"
        },
        {
          "internalType": "address",
          "name": "",
          "type": "address"
        }
      ],
      "stateMutability": "view",
      "type": "function",
      "constant": true
    }
  ],
  "bytecode": "0x60806040523480156200001157600080fd5b506040518060400160405280601181526020017f5265616c45737461746542696464696e670000000000000000000000000000008152506040518060400160405280600381526020017f5245420000000000000000000000000000000000000000000000000000000000815250620000966301ffc9a760e01b6200011860201b60201c565b8160069080519060200190620000ae92919062000221565b508060079080519060200190620000c792919062000221565b50620000e06380ac58cd60e01b6200011860201b60201c565b620000f8635b5e139f60e01b6200011860201b60201c565b6200011063780e9d6360e01b6200011860201b60201c565b5050620002c7565b63ffffffff60e01b817bffffffffffffffffffffffffffffffffffffffffffffffffffffffff19161415620001b5576040517f08c379a000000000000000000000000000000000000000000000000000000000815260040180806020018281038252601c8152602001807f4552433136353a20696e76616c696420696e746572666163652069640000000081525060200191505060405180910390fd5b6001600080837bffffffffffffffffffffffffffffffffffffffffffffffffffffffff19167bffffffffffffffffffffffffffffffffffffffffffffffffffffffff1916815260200190815260200160002060006101000a81548160ff02191690831515021790555050565b828054600181600116156101000203166002900490600052602060002090601f016020900481019282601f106200026457805160ff191683800117855562000295565b8280016001018555821562000295579182015b828111156200029457825182559160200191906001019062000277565b5b509050620002a49190620002a8565b5090565b5b80821115620002c3576000816000905550600101620002a9565b5090565b61393280620002d76000396000f3fe608060405234801561001057600080fd5b50600436106101c45760003560e01c806370a08231116100f9578063a22cb46511610097578063c87b56dd11610071578063c87b56dd14610a42578063d8d7d11014610ae9578063e985e9c514610b94578063fd27b51e14610c0e576101c4565b8063a22cb465146108bf578063b88d4fde1461090f578063bb98b3a214610a14576101c4565b80638f288644116100d35780638f2886441461077e57806395d89b41146107c057806396575ea914610843578063a0712d6814610891576101c4565b806370a082311461068a57806384ab6e62146106e25780638ccb59e814610726576101c4565b80632f745c5911610166578063598647f811610140578063598647f814610535578063634282af1461056d5780636352211e146105af5780636c0360eb14610607576101c4565b80632f745c591461042357806342842e0e146104855780634f6ccce7146104f3576101c4565b8063095ea7b3116101a2578063095ea7b31461030757806318160ddd1461035557806323b872dd1461037357806328861d22146103e1576101c4565b806301ffc9a7146101c957806306fdde031461022c578063081812fc146102af575b600080fd5b610214600480360360208110156101df57600080fd5b8101908080357bffffffffffffffffffffffffffffffffffffffffffffffffffffffff19169060200190929190505050610c2c565b60405180821515815260200191505060405180910390f35b610234610c93565b6040518080602001828103825283818151815260200191508051906020019080838360005b83811015610274578082015181840152602081019050610259565b50505050905090810190601f1680156102a15780820380516001836020036101000a031916815260200191505b509250505060405180910390f35b6102db600480360360208110156102c557600080fd5b8101908080359060200190929190505050610d35565b604051808273ffffffffffffffffffffffffffffffffffffffff16815260200191505060405180910390f35b6103536004803603604081101561031d57600080fd5b81019080803573ffffffffffffffffffffffffffffffffffffffff16906020019092919080359060200190929190505050610dd0565b005b61035d610f14565b6040518082815260200191505060405180910390f35b6103df6004803603606081101561038957600080fd5b81019080803573ffffffffffffffffffffffffffffffffffffffff169060200190929190803573ffffffffffffffffffffffffffffffffffffffff16906020019092919080359060200190929190505050610f25565b005b61040d600480360360208110156103f757600080fd5b8101908080359060200190929190505050610f9b565b6040518082815260200191505060405180910390f35b61046f6004803603604081101561043957600080fd5b81019080803573ffffffffffffffffffffffffffffffffffffffff16906020019092919080359060200190929190505050610fbc565b6040518082815260200191505060405180910390f35b6104f16004803603606081101561049b57600080fd5b81019080803573ffffffffffffffffffffffffffffffffffffffff169060200190929190803573ffffffffffffffffffffffffffffffffffffffff16906020019092919080359060200190929190505050611017565b005b61051f6004803603602081101561050957600080fd5b8101908080359060200190929190505050611037565b6040518082815260200191505060405180910390f35b61056b6004803603604081101561054b57600080fd5b81019080803590602001909291908035906020019092919050505061105a565b005b6105996004803603602081101561058357600080fd5b8101908080359060200190929190505050611221565b6040518082815260200191505060405180910390f35b6105db600480360360208110156105c557600080fd5b8101908080359060200190929190505050611242565b604051808273ffffffffffffffffffffffffffffffffffffffff16815260200191505060405180910390f35b61060f611279565b6040518080602001828103825283818151815260200191508051906020019080838360005b8381101561064f578082015181840152602081019050610634565b50505050905090810190601f16801561067c5780820380516001836020036101000a031916815260200191505b509250505060405180910390f35b6106cc600480360360208110156106a057600080fd5b81019080803573ffffffffffffffffffffffffffffffffffffffff16906020019092919050505061131b565b6040518082815260200191505060405180910390f35b61070e600480360360208110156106f857600080fd5b81019080803590602001909291905050506113f0565b60405180821515815260200191505060405180910390f35b6107526004803603602081101561073c57600080fd5b81019080803590602001909291905050506115d0565b604051808273ffffffffffffffffffffffffffffffffffffffff16815260200191505060405180910390f35b6107aa6004803603602081101561079457600080fd5b8101908080359060200190929190505050611876565b6040518082815260200191505060405180910390f35b6107c8611899565b6040518080602001828103825283818151815260200191508051906020019080838360005b838110156108085780820151818401526020810190506107ed565b50505050905090810190601f1680156108355780820380516001836020036101000a031916815260200191505b509250505060405180910390f35b61088f6004803603604081101561085957600080fd5b8101908080359060200190929190803573ffffffffffffffffffffffffffffffffffffffff16906020019092919050505061193b565b005b6108bd600480360360208110156108a757600080fd5b8101908080359060200190929190505050611c3c565b005b61090d600480360360408110156108d557600080fd5b81019080803573ffffffffffffffffffffffffffffffffffffffff169060200190929190803515159060200190929190505050611c72565b005b610a126004803603608081101561092557600080fd5b81019080803573ffffffffffffffffffffffffffffffffffffffff169060200190929190803573ffffffffffffffffffffffffffffffffffffffff169060200190929190803590602001909291908035906020019064010000000081111561098c57600080fd5b82018360208201111561099e57600080fd5b803590602001918460018302840111640100000000831117156109c057600080fd5b91908080601f016020809104026020016040519081016040528093929190818152602001838380828437600081840152601f19601f820116905080830192505050505050509192919290505050611e28565b005b610a4060048036036020811015610a2a57600080fd5b8101908080359060200190929190505050611ea0565b005b610a6e60048036036020811015610a5857600080fd5b810190808035906020019092919050505061204b565b6040518080602001828103825283818151815260200191508051906020019080838360005b83811015610aae578082015181840152602081019050610a93565b50505050905090810190601f168015610adb5780820380516001836020036101000a031916815260200191505b509250505060405180910390f35b610b1560048036036020811015610aff57600080fd5b8101908080359060200190929190505050612334565b604051808773ffffffffffffffffffffffffffffffffffffffff16815260200186151581526020018573ffffffffffffffffffffffffffffffffffffffff16815260200184815260200183151581526020018273ffffffffffffffffffffffffffffffffffffffff168152602001965050505050505060405180910390f35b610bf660048036036040811015610baa57600080fd5b81019080803573ffffffffffffffffffffffffffffffffffffffff169060200190929190803573ffffffffffffffffffffffffffffffffffffffff16906020019092919050505061245c565b60405180821515815260200191505060405180910390f35b610c166124f0565b6040518082815260200191505060405180910390f35b6000806000837bffffffffffffffffffffffffffffffffffffffffffffffffffffffff19167bffffffffffffffffffffffffffffffffffffffffffffffffffffffff1916815260200190815260200160002060009054906101000a900460ff169050919050565b606060068054600181600116156101000203166002900480601f016020809104026020016040519081016040528092919081815260200182805460018160011615610100020316600290048015610d2b5780601f10610d0057610100808354040283529160200191610d2b565b820191906000526020600020905b815481529060010190602001808311610d0e57829003601f168201915b5050505050905090565b6000610d40826124fd565b610d95576040517f08c379a000000000000000000000000000000000000000000000000000000000815260040180806020018281038252602c8152602001806137b6602c913960400191505060405180910390fd5b6004600083815260200190815260200160002060009054906101000a900473ffffffffffffffffffffffffffffffffffffffff169050919050565b6000610ddb82611242565b90508073ffffffffffffffffffffffffffffffffffffffff168373ffffffffffffffffffffffffffffffffffffffff161415610e62576040517f08c379a000000000000000000000000000000000000000000000000000000000815260040180806020018281038252602181526020018061387a6021913960400191505060405180910390fd5b8073ffffffffffffffffffffffffffffffffffffffff16610e8161251a565b73ffffffffffffffffffffffffffffffffffffffff161480610eb05750610eaf81610eaa61251a565b61245c565b5b610f05576040517f08c379a00000000000000000000000000000000000000000000000000000000081526004018080602001828103825260388152602001806137096038913960400191505060405180910390fd5b610f0f8383612522565b505050565b6000610f2060026125db565b905090565b610f36610f3061251a565b826125f0565b610f8b576040517f08c379a000000000000000000000000000000000000000000000000000000000815260040180806020018281038252603181526020018061389b6031913960400191505060405180910390fd5b610f968383836126e4565b505050565b600b8181548110610fa857fe5b906000526020600020016000915090505481565b600061100f82600160008673ffffffffffffffffffffffffffffffffffffffff1673ffffffffffffffffffffffffffffffffffffffff16815260200190815260200160002061292790919063ffffffff16565b905092915050565b61103283838360405180602001604052806000815250611e28565b505050565b60008061104e83600261294190919063ffffffff16565b50905080915050919050565b600d600083815260200190815260200160002060000160149054906101000a900460ff166110d3576040517f08c379a00000000000000000000000000000000000000000000000000000000081526004018080602001828103825260308152602001806135e96030913960400191505060405180910390fd5b80600d60008481526020019081526020016000206001016001015410611144576040517f08c379a000000000000000000000000000000000000000000000000000000000815260040180806020018281038252604081526020018061380b6040913960400191505060405180910390fd5b60405180604001604052803373ffffffffffffffffffffffffffffffffffffffff16815260200182815250600d600084815260200190815260200160002060010160008201518160000160006101000a81548173ffffffffffffffffffffffffffffffffffffffff021916908373ffffffffffffffffffffffffffffffffffffffff160217905550602082015181600101559050503373ffffffffffffffffffffffffffffffffffffffff16827f70c40150c6cc556f564f404d2ba96df5315c8a16d33a1c028cdd59b6a012435960405160405180910390a35050565b600a818154811061122e57fe5b906000526020600020016000915090505481565b60006112728260405180606001604052806029815260200161376b60299139600261296d9092919063ffffffff16565b9050919050565b606060098054600181600116156101000203166002900480601f0160208091040260200160405190810160405280929190818152602001828054600181600116156101000203166002900480156113115780601f106112e657610100808354040283529160200191611311565b820191906000526020600020905b8154815290600101906020018083116112f457829003601f168201915b5050505050905090565b60008073ffffffffffffffffffffffffffffffffffffffff168273ffffffffffffffffffffffffffffffffffffffff1614156113a2576040517f08c379a000000000000000000000000000000000000000000000000000000000815260040180806020018281038252602a815260200180613741602a913960400191505060405180910390fd5b6113e9600160008473ffffffffffffffffffffffffffffffffffffffff1673ffffffffffffffffffffffffffffffffffffffff16815260200190815260200160002061298c565b9050919050565b60003373ffffffffffffffffffffffffffffffffffffffff1661141283611242565b73ffffffffffffffffffffffffffffffffffffffff161461147e576040517f08c379a000000000000000000000000000000000000000000000000000000000815260040180806020018281038252602f81526020018061366f602f913960400191505060405180910390fd5b6000600d600084815260200190815260200160002060000160146101000a81548160ff0219169083151502179055506000600d600084815260200190815260200160002060000160006101000a81548173ffffffffffffffffffffffffffffffffffffffff021916908373ffffffffffffffffffffffffffffffffffffffff1602179055506040518060400160405280600073ffffffffffffffffffffffffffffffffffffffff1681526020016000815250600d600084815260200190815260200160002060010160008201518160000160006101000a81548173ffffffffffffffffffffffffffffffffffffffff021916908373ffffffffffffffffffffffffffffffffffffffff16021790555060208201518160010155905050817f9b6861720146537cee1b4df492ee8b6b659353ca3f537e75a772f53062f3fbb360405160405180910390a260019050919050565b6000600d600083815260200190815260200160002060000160009054906101000a900473ffffffffffffffffffffffffffffffffffffffff1673ffffffffffffffffffffffffffffffffffffffff163373ffffffffffffffffffffffffffffffffffffffff161461168c576040517f08c379a000000000000000000000000000000000000000000000000000000000815260040180806020018281038252603f81526020018061369e603f913960400191505060405180910390fd5b6000600d60008481526020019081526020016000206001016001015414156116b75760009050611871565b6000600d600084815260200190815260200160002060000160146101000a81548160ff0219169083151502179055506001600d600084815260200190815260200160002060030160006101000a81548160ff021916908315150217905550600d600083815260200190815260200160002060010160000160009054906101000a900473ffffffffffffffffffffffffffffffffffffffff16600d600084815260200190815260200160002060030160016101000a81548173ffffffffffffffffffffffffffffffffffffffff021916908373ffffffffffffffffffffffffffffffffffffffff160217905550600d600083815260200190815260200160002060010160010154600d600084815260200190815260200160002060030160019054906101000a900473ffffffffffffffffffffffffffffffffffffffff1673ffffffffffffffffffffffffffffffffffffffff16837f992535e802e8123e9eb931d979647edc6493f77f265deea35426b61dde47f78b60405160405180910390a4600d600083815260200190815260200160002060030160019054906101000a900473ffffffffffffffffffffffffffffffffffffffff1690505b919050565b6000600d6000838152602001908152602001600020600101600101549050919050565b606060078054600181600116156101000203166002900480601f0160208091040260200160405190810160405280929190818152602001828054600181600116156101000203166002900480156119315780601f1061190657610100808354040283529160200191611931565b820191906000526020600020905b81548152906001019060200180831161191457829003601f168201915b5050505050905090565b3373ffffffffffffffffffffffffffffffffffffffff1661195b83611242565b73ffffffffffffffffffffffffffffffffffffffff16146119c7576040517f08c379a00000000000000000000000000000000000000000000000000000000081526004018080602001828103825260318152602001806138cc6031913960400191505060405180910390fd5b600073ffffffffffffffffffffffffffffffffffffffff166119e883611242565b73ffffffffffffffffffffffffffffffffffffffff161415611a72576040517f08c379a000000000000000000000000000000000000000000000000000000000815260040180806020018281038252601f8152602001807f5265616c537461746562696464696e673a204e6f207375636820746f6b656e0081525060200191505060405180910390fd5b6040518060a001604052808273ffffffffffffffffffffffffffffffffffffffff1681526020016000151581526020016040518060400160405280600073ffffffffffffffffffffffffffffffffffffffff16815260200160008152508152602001600015158152602001600073ffffffffffffffffffffffffffffffffffffffff16815250600d600084815260200190815260200160002060008201518160000160006101000a81548173ffffffffffffffffffffffffffffffffffffffff021916908373ffffffffffffffffffffffffffffffffffffffff16021790555060208201518160000160146101000a81548160ff02191690831515021790555060408201518160010160008201518160000160006101000a81548173ffffffffffffffffffffffffffffffffffffffff021916908373ffffffffffffffffffffffffffffffffffffffff16021790555060208201518160010155505060608201518160030160006101000a81548160ff02191690831515021790555060808201518160030160016101000a81548173ffffffffffffffffffffffffffffffffffffffff021916908373ffffffffffffffffffffffffffffffffffffffff1602179055509050505050565b611c4633826129a1565b600a81908060018154018082558091505060019003906000526020600020016000909190919091505550565b611c7a61251a565b73ffffffffffffffffffffffffffffffffffffffff168273ffffffffffffffffffffffffffffffffffffffff161415611d1b576040517f08c379a00000000000000000000000000000000000000000000000000000000081526004018080602001828103825260198152602001807f4552433732313a20617070726f766520746f2063616c6c65720000000000000081525060200191505060405180910390fd5b8060056000611d2861251a565b73ffffffffffffffffffffffffffffffffffffffff1673ffffffffffffffffffffffffffffffffffffffff16815260200190815260200160002060008473ffffffffffffffffffffffffffffffffffffffff1673ffffffffffffffffffffffffffffffffffffffff16815260200190815260200160002060006101000a81548160ff0219169083151502179055508173ffffffffffffffffffffffffffffffffffffffff16611dd561251a565b73ffffffffffffffffffffffffffffffffffffffff167f17307eab39ab6107e8899845ad3d59bd9653f200f220920489ca2b5937696c318360405180821515815260200191505060405180910390a35050565b611e39611e3361251a565b836125f0565b611e8e576040517f08c379a000000000000000000000000000000000000000000000000000000000815260040180806020018281038252603181526020018061389b6031913960400191505060405180910390fd5b611e9a84848484612b95565b50505050565b600d600082815260200190815260200160002060000160009054906101000a900473ffffffffffffffffffffffffffffffffffffffff1673ffffffffffffffffffffffffffffffffffffffff163373ffffffffffffffffffffffffffffffffffffffff1614611f5a576040517f08c379a000000000000000000000000000000000000000000000000000000000815260040180806020018281038252603f81526020018061369e603f913960400191505060405180910390fd5b6001600d600083815260200190815260200160002060000160146101000a81548160ff021916908315150217905550600c600082815260200190815260200160002060009054906101000a900460ff16612004576001600c600083815260200190815260200160002060006101000a81548160ff021916908315150217905550600b8190806001815401808255809150506001900390600052602060002001600090919091909150555b3373ffffffffffffffffffffffffffffffffffffffff16817f10f8a66e5b89bac151a42e7e18b1ed4351a20b1a8fa0c9f151891a7de9f30b0a60405160405180910390a350565b6060612056826124fd565b6120ab576040517f08c379a000000000000000000000000000000000000000000000000000000000815260040180806020018281038252602f81526020018061384b602f913960400191505060405180910390fd5b6060600860008481526020019081526020016000208054600181600116156101000203166002900480601f0160208091040260200160405190810160405280929190818152602001828054600181600116156101000203166002900480156121545780601f1061212957610100808354040283529160200191612154565b820191906000526020600020905b81548152906001019060200180831161213757829003601f168201915b50505050509050600060098054600181600116156101000203166002900490501415612183578091505061232f565b60008151111561225c5760098160405160200180838054600181600116156101000203166002900480156121ee5780601f106121cc5761010080835404028352918201916121ee565b820191906000526020600020905b8154815290600101906020018083116121da575b505082805190602001908083835b6020831061221f57805182526020820191506020810190506020830392506121fc565b6001836020036101000a0380198251168184511680821785525050505050509050019250505060405160208183030381529060405291505061232f565b600961226784612c07565b60405160200180838054600181600116156101000203166002900480156122c55780601f106122a35761010080835404028352918201916122c5565b820191906000526020600020905b8154815290600101906020018083116122b1575b505082805190602001908083835b602083106122f657805182526020820191506020810190506020830392506122d3565b6001836020036101000a038019825116818451168082178552505050505050905001925050506040516020818303038152906040529150505b919050565b600080600080600080600d600088815260200190815260200160002060000160009054906101000a900473ffffffffffffffffffffffffffffffffffffffff16600d600089815260200190815260200160002060000160149054906101000a900460ff16600d60008a815260200190815260200160002060010160000160009054906101000a900473ffffffffffffffffffffffffffffffffffffffff16600d60008b815260200190815260200160002060010160010154600d60008c815260200190815260200160002060030160009054906101000a900460ff16600d60008d815260200190815260200160002060030160019054906101000a900473ffffffffffffffffffffffffffffffffffffffff1695509550955095509550955091939550919395565b6000600560008473ffffffffffffffffffffffffffffffffffffffff1673ffffffffffffffffffffffffffffffffffffffff16815260200190815260200160002060008373ffffffffffffffffffffffffffffffffffffffff1673ffffffffffffffffffffffffffffffffffffffff16815260200190815260200160002060009054906101000a900460ff16905092915050565b6000600b80549050905090565b6000612513826002612d4e90919063ffffffff16565b9050919050565b600033905090565b816004600083815260200190815260200160002060006101000a81548173ffffffffffffffffffffffffffffffffffffffff021916908373ffffffffffffffffffffffffffffffffffffffff160217905550808273ffffffffffffffffffffffffffffffffffffffff1661259583611242565b73ffffffffffffffffffffffffffffffffffffffff167f8c5be1e5ebec7d5bd14f71427d1e84f3dd0314c0f7b2291e5b200ac8c7c3b92560405160405180910390a45050565b60006125e982600001612d68565b9050919050565b60006125fb826124fd565b612650576040517f08c379a000000000000000000000000000000000000000000000000000000000815260040180806020018281038252602c8152602001806136dd602c913960400191505060405180910390fd5b600061265b83611242565b90508073ffffffffffffffffffffffffffffffffffffffff168473ffffffffffffffffffffffffffffffffffffffff1614806126ca57508373ffffffffffffffffffffffffffffffffffffffff166126b284610d35565b73ffffffffffffffffffffffffffffffffffffffff16145b806126db57506126da818561245c565b5b91505092915050565b8273ffffffffffffffffffffffffffffffffffffffff1661270482611242565b73ffffffffffffffffffffffffffffffffffffffff1614612770576040517f08c379a00000000000000000000000000000000000000000000000000000000081526004018080602001828103825260298152602001806137e26029913960400191505060405180910390fd5b600073ffffffffffffffffffffffffffffffffffffffff168273ffffffffffffffffffffffffffffffffffffffff1614156127f6576040517f08c379a000000000000000000000000000000000000000000000000000000000815260040180806020018281038252602481526020018061364b6024913960400191505060405180910390fd5b612801838383612d79565b61280c600082612522565b61285d81600160008673ffffffffffffffffffffffffffffffffffffffff1673ffffffffffffffffffffffffffffffffffffffff168152602001908152602001600020612d7e90919063ffffffff16565b506128af81600160008573ffffffffffffffffffffffffffffffffffffffff1673ffffffffffffffffffffffffffffffffffffffff168152602001908152602001600020612d9890919063ffffffff16565b506128c681836002612db29092919063ffffffff16565b50808273ffffffffffffffffffffffffffffffffffffffff168473ffffffffffffffffffffffffffffffffffffffff167fddf252ad1be2c89b69c2b068fc378daa952ba7f163c4a11628f55a4df523b3ef60405160405180910390a4505050565b60006129368360000183612de7565b60001c905092915050565b6000806000806129548660000186612e6a565b915091508160001c8160001c9350935050509250929050565b6000612980846000018460001b84612f03565b60001c90509392505050565b600061299a82600001612ff9565b9050919050565b600073ffffffffffffffffffffffffffffffffffffffff168273ffffffffffffffffffffffffffffffffffffffff161415612a44576040517f08c379a00000000000000000000000000000000000000000000000000000000081526004018080602001828103825260208152602001807f4552433732313a206d696e7420746f20746865207a65726f206164647265737381525060200191505060405180910390fd5b612a4d816124fd565b15612ac0576040517f08c379a000000000000000000000000000000000000000000000000000000000815260040180806020018281038252601c8152602001807f4552433732313a20746f6b656e20616c7265616479206d696e7465640000000081525060200191505060405180910390fd5b612acc60008383612d79565b612b1d81600160008573ffffffffffffffffffffffffffffffffffffffff1673ffffffffffffffffffffffffffffffffffffffff168152602001908152602001600020612d9890919063ffffffff16565b50612b3481836002612db29092919063ffffffff16565b50808273ffffffffffffffffffffffffffffffffffffffff16600073ffffffffffffffffffffffffffffffffffffffff167fddf252ad1be2c89b69c2b068fc378daa952ba7f163c4a11628f55a4df523b3ef60405160405180910390a45050565b612ba08484846126e4565b612bac8484848461300a565b612c01576040517f08c379a00000000000000000000000000000000000000000000000000000000081526004018080602001828103825260328152602001806136196032913960400191505060405180910390fd5b50505050565b60606000821415612c4f576040518060400160405280600181526020017f30000000000000000000000000000000000000000000000000000000000000008152509050612d49565b600082905060005b60008214612c79578080600101915050600a8281612c7157fe5b049150612c57565b60608167ffffffffffffffff81118015612c9257600080fd5b506040519080825280601f01601f191660200182016040528015612cc55781602001600182028036833780820191505090505b50905060006001830390508593505b60008414612d4157600a8481612ce657fe5b0660300160f81b82828060019003935081518110612d0057fe5b60200101907effffffffffffffffffffffffffffffffffffffffffffffffffffffffffffff1916908160001a905350600a8481612d3957fe5b049350612cd4565b819450505050505b919050565b6000612d60836000018360001b613301565b905092915050565b600081600001805490509050919050565b505050565b6000612d90836000018360001b613324565b905092915050565b6000612daa836000018360001b61340c565b905092915050565b6000612dde846000018460001b8473ffffffffffffffffffffffffffffffffffffffff1660001b61347c565b90509392505050565b600081836000018054905011612e48576040517f08c379a00000000000000000000000000000000000000000000000000000000081526004018080602001828103825260228152602001806135c76022913960400191505060405180910390fd5b826000018281548110612e5757fe5b9060005260206000200154905092915050565b60008082846000018054905011612ecc576040517f08c379a00000000000000000000000000000000000000000000000000000000081526004018080602001828103825260228152602001806137946022913960400191505060405180910390fd5b6000846000018481548110612edd57fe5b906000526020600020906002020190508060000154816001015492509250509250929050565b60008084600101600085815260200190815260200160002054905060008114158390612fca576040517f08c379a00000000000000000000000000000000000000000000000000000000081526004018080602001828103825283818151815260200191508051906020019080838360005b83811015612f8f578082015181840152602081019050612f74565b50505050905090810190601f168015612fbc5780820380516001836020036101000a031916815260200191505b509250505060405180910390fd5b50846000016001820381548110612fdd57fe5b9060005260206000209060020201600101549150509392505050565b600081600001805490509050919050565b600061302b8473ffffffffffffffffffffffffffffffffffffffff16613558565b61303857600190506132f9565b600060608573ffffffffffffffffffffffffffffffffffffffff1663150b7a0260e01b61306361251a565b898888604051602401808573ffffffffffffffffffffffffffffffffffffffff1681526020018473ffffffffffffffffffffffffffffffffffffffff16815260200183815260200180602001828103825283818151815260200191508051906020019080838360005b838110156130e75780820151818401526020810190506130cc565b50505050905090810190601f1680156131145780820380516001836020036101000a031916815260200191505b5095505050505050604051602081830303815290604052907bffffffffffffffffffffffffffffffffffffffffffffffffffffffff19166020820180517bffffffffffffffffffffffffffffffffffffffffffffffffffffffff83818316178352505050506040518082805190602001908083835b602083106131ac5780518252602082019150602081019050602083039250613189565b6001836020036101000a0380198251168184511680821785525050505050509050019150506000604051808303816000865af19150503d806000811461320e576040519150601f19603f3d011682016040523d82523d6000602084013e613213565b606091505b509150915081613281576000815111156132305780518082602001fd5b6040517f08c379a00000000000000000000000000000000000000000000000000000000081526004018080602001828103825260328152602001806136196032913960400191505060405180910390fd5b600081806020019051602081101561329857600080fd5b8101908080519060200190929190505050905063150b7a0260e01b7bffffffffffffffffffffffffffffffffffffffffffffffffffffffff1916817bffffffffffffffffffffffffffffffffffffffffffffffffffffffff19161493505050505b949350505050565b600080836001016000848152602001908152602001600020541415905092915050565b60008083600101600084815260200190815260200160002054905060008114613400576000600182039050600060018660000180549050039050600086600001828154811061336f57fe5b906000526020600020015490508087600001848154811061338c57fe5b90600052602060002001819055506001830187600101600083815260200190815260200160002081905550866000018054806133c457fe5b60019003818190600052602060002001600090559055866001016000878152602001908152602001600020600090556001945050505050613406565b60009150505b92915050565b600061341883836135a3565b613471578260000182908060018154018082558091505060019003906000526020600020016000909190919091505582600001805490508360010160008481526020019081526020016000208190555060019050613476565b600090505b92915050565b600080846001016000858152602001908152602001600020549050600081141561352357846000016040518060400160405280868152602001858152509080600181540180825580915050600190039060005260206000209060020201600090919091909150600082015181600001556020820151816001015550508460000180549050856001016000868152602001908152602001600020819055506001915050613551565b8285600001600183038154811061353657fe5b90600052602060002090600202016001018190555060009150505b9392505050565b60008060007fc5d2460186f7233c927e7db2dcc703c0e500b653ca82273b7bfad8045d85a47060001b9050833f915080821415801561359a57506000801b8214155b92505050919050565b60008083600101600084815260200190815260200160002054141590509291505056fe456e756d657261626c655365743a20696e646578206f7574206f6620626f756e64735265616c537461746562696464696e673a50726f7065727479206973206e6f206c6f6e676572206f6e204d61726b65744552433732313a207472616e7366657220746f206e6f6e20455243373231526563656976657220696d706c656d656e7465724552433732313a207472616e7366657220746f20746865207a65726f20616464726573735265616c537461746562696464696e673a2043616e206e6f74207769746864726177206f746865727320746f6b656e5265616c537461746562696464696e673a204f6e6c792061737369676e6564207265616c746f722063616e2063616c6c20746869732066756e6374696f6e2e4552433732313a206f70657261746f7220717565727920666f72206e6f6e6578697374656e7420746f6b656e4552433732313a20617070726f76652063616c6c6572206973206e6f74206f776e6572206e6f7220617070726f76656420666f7220616c6c4552433732313a2062616c616e636520717565727920666f7220746865207a65726f20616464726573734552433732313a206f776e657220717565727920666f72206e6f6e6578697374656e7420746f6b656e456e756d657261626c654d61703a20696e646578206f7574206f6620626f756e64734552433732313a20617070726f76656420717565727920666f72206e6f6e6578697374656e7420746f6b656e4552433732313a207472616e73666572206f6620746f6b656e2074686174206973206e6f74206f776e5265616c537461746562696464696e673a546865726520697320616c72656164792061206869676865737420626964206f6e20746869732070726f70657274794552433732314d657461646174613a2055524920717565727920666f72206e6f6e6578697374656e7420746f6b656e4552433732313a20617070726f76616c20746f2063757272656e74206f776e65724552433732313a207472616e736665722063616c6c6572206973206e6f74206f776e6572206e6f7220617070726f7665645265616c537461746562696464696e673a2043616e206e6f742061737369676e20666f72206f746865727320746f6b656ea264697066735822122080afa034b2fb19e81be72d95d397473c4f7bf175f261f9dde134a2d17c73caa864736f6c634300060c0033",
  "immutableReferences": {},
  "source": "//SPDX-License-Identifier: MIT\n\npragma solidity ^0.6.0;\n\nimport \"./ERC721.sol\";\n\ncontract RealEstateBidding is ERC721 {\n    // struct for each bid\n    struct Bid {\n        address bidAddress;\n        uint256 bidAmount;\n    }\n\n    //Struct for each bid process\n    struct SingleBidProcess {\n        address realtor;\n        bool onMarket;\n        Bid highestBid;\n        bool winnerRevealed;\n        address winner;\n    }\n\n    //holds all tokens minted\n    uint256[] public allTokens;\n    //tokens On market  list to iterate\n    uint256[] public market;\n\n    //tokens on market mapping for uinqe access\n    mapping(uint256 => bool) inMarket;\n\n    //mapping from token Ids to bid process\n    mapping(uint256 => SingleBidProcess) allBids;\n\n    //-- Events ---\n    event PropOnMarket(uint256 indexed tokenId, address indexed realtor);\n    event HighBid(uint256 indexed tokenId, address indexed bidder);\n    event WinnerRevealed(\n        uint256 indexed tokenId,\n        address indexed winner,\n        uint256 indexed price\n    );\n    event PropOnWithdraw(uint256 indexed tokenId);\n\n    constructor() public ERC721(\"RealEstateBidding\", \"REB\") {}\n\n    function mint(uint256 propID) public {\n        _mint(msg.sender, propID);\n        allTokens.push(propID);\n    }\n\n    //Function to assign a realtor by owner\n    function assignRealtor(uint256 tokenId, address realtor) public {\n        require(\n            ownerOf(tokenId) == msg.sender,\n            \"RealStatebidding: Can not assign for others token\"\n        );\n\n        require(\n            ownerOf(tokenId) != address(0),\n            \"RealStatebidding: No such token\"\n        );\n\n        allBids[tokenId] = SingleBidProcess(\n            realtor,\n            false,\n            Bid(address(0), 0),\n            false,\n            address(0)\n        );\n    }\n\n    //function to place realstate on market by realtor\n    function putOnMarket(uint256 tokenId) public {\n        //check if token exists\n        //check if sender is the assigned realtor\n        require(\n            msg.sender == allBids[tokenId].realtor,\n            \"RealStatebidding: Only assigned realtor can call this function.\"\n        );\n        //change on market to true on bidProcess struct\n        allBids[tokenId].onMarket = true;\n        if (!inMarket[tokenId]) {\n            inMarket[tokenId] = true;\n            market.push(tokenId);\n        }\n        // Fire event on market\n        emit PropOnMarket(tokenId, msg.sender);\n    }\n\n    //biding on properties\n    function bid(uint256 tokenId, uint256 amount) public {\n        //check if tokenId is still on market\n        require(\n            allBids[tokenId].onMarket,\n            \"RealStatebidding:Property is no longer on Market\"\n        );\n        //check if amount is higher than highest bid\n        require(\n            allBids[tokenId].highestBid.bidAmount < amount,\n            \"RealStatebidding:There is already a highest bid on this property\"\n        );\n        //replace highest bid with new bid\n        allBids[tokenId].highestBid = Bid(msg.sender, amount);\n        //push bid to array bids\n        //Fire new high bid\n        emit HighBid(tokenId, msg.sender);\n    }\n\n    // Reveal winner function\n    function revealWinner(uint256 tokenId) public returns (address) {\n        // Check is caller the realtor\n        require(\n            msg.sender == allBids[tokenId].realtor,\n            \"RealStatebidding: Only assigned realtor can call this function.\"\n        );\n\n        // check if there is a bid on property\n        if (allBids[tokenId].highestBid.bidAmount == 0) {\n            return address(0);\n        } else {\n            allBids[tokenId].onMarket = false;\n            allBids[tokenId].winnerRevealed = true;\n            allBids[tokenId].winner = allBids[tokenId].highestBid.bidAddress;\n            emit WinnerRevealed(\n                tokenId,\n                allBids[tokenId].winner,\n                allBids[tokenId].highestBid.bidAmount\n            );\n            return allBids[tokenId].winner;\n        }\n    }\n\n    // function view Bids on my property\n    function getHighestBid(uint256 tokenId) public view returns (uint256) {\n        return allBids[tokenId].highestBid.bidAmount;\n    }\n\n    // function get market size\n    function getMarketSize() public view returns (uint256) {\n        //Can only view bids On my property\n        return market.length;\n    }\n\n    // function to withdraw property from market\n    function withdrawFromMarket(uint256 tokenId) public returns (bool) {\n        //Can only wwithdraw for my property\n        require(\n            ownerOf(tokenId) == msg.sender,\n            \"RealStatebidding: Can not withdraw others token\"\n        );\n\n        allBids[tokenId].onMarket = false;\n        allBids[tokenId].realtor = address(0);\n        allBids[tokenId].highestBid = Bid(address(0), 0);\n\n        //Fire event property withdraw from market\n        emit PropOnWithdraw(tokenId);\n\n        return true;\n    }\n\n    // Getting single bid\n    function getBidProcess(uint256 tokenId)\n        public\n        view\n        returns (\n            address,\n            bool,\n            address,\n            uint256,\n            bool,\n            address\n        )\n    {\n        //check if tokenId is still on market\n        // require(\n        //     allBids[tokenId].onMarket,\n        //     \"RealStatebidding:Property is no longer on Market\"\n        // );\n        return (\n            allBids[tokenId].realtor,\n            allBids[tokenId].onMarket,\n            allBids[tokenId].highestBid.bidAddress,\n            allBids[tokenId].highestBid.bidAmount,\n            allBids[tokenId].winnerRevealed,\n            allBids[tokenId].winner\n        );\n    }\n}\n",
  "sourcePath": "C:\\Users\\majid\\Desktop\\GBC\\Design Patterns for Blockchain\\Group Assignment\\RealState-Bidding-DAPP\\Solidity-Backend\\contracts\\RealEstateBidding.sol",
  "compiler": {
    "name": "solc",
    "version": "0.6.12+commit.27d51765.Emscripten.clang"
  },
  "schemaVersion": "3.2.0",
  "updatedAt": "2020-07-23T18:26:17.115Z",
  "networkType": "ethereum",
  "devdoc": {
    "kind": "dev",
    "methods": {
      "approve(address,uint256)": {
        "details": "Approves another address to transfer the given token ID The zero address indicates there is no approved address. There can only be one approved address per token at a given time. Can only be called by the token owner or an approved operator.",
        "params": {
          "to": "address to be approved for the given token ID",
          "tokenId": "uint256 ID of the token to be approved"
        }
      },
      "balanceOf(address)": {
        "details": "Gets the balance of the specified address.",
        "params": {
          "owner": "address to query the balance of"
        },
        "returns": {
          "_0": "uint256 representing the amount owned by the passed address"
        }
      },
      "baseURI()": {
        "details": "Returns the base URI set via {_setBaseURI}. This will be automatically added as a prefix in {tokenURI} to each token's URI, or to the token ID if no specific URI is set for that token ID."
      },
      "getApproved(uint256)": {
        "details": "Gets the approved address for a token ID, or zero if no address set Reverts if the token ID does not exist.",
        "params": {
          "tokenId": "uint256 ID of the token to query the approval of"
        },
        "returns": {
          "_0": "address currently approved for the given token ID"
        }
      },
      "isApprovedForAll(address,address)": {
        "details": "Tells whether an operator is approved by a given owner.",
        "params": {
          "operator": "operator address which you want to query the approval of",
          "owner": "owner address which you want to query the approval of"
        },
        "returns": {
          "_0": "bool whether the given operator is approved by the given owner"
        }
      },
      "name()": {
        "details": "Gets the token name.",
        "returns": {
          "_0": "string representing the token name"
        }
      },
      "ownerOf(uint256)": {
        "details": "Gets the owner of the specified token ID.",
        "params": {
          "tokenId": "uint256 ID of the token to query the owner of"
        },
        "returns": {
          "_0": "address currently marked as the owner of the given token ID"
        }
      },
      "safeTransferFrom(address,address,uint256)": {
        "details": "Safely transfers the ownership of a given token ID to another address If the target address is a contract, it must implement {IERC721Receiver-onERC721Received}, which is called upon a safe transfer, and return the magic value `bytes4(keccak256(\"onERC721Received(address,address,uint256,bytes)\"))`; otherwise, the transfer is reverted. Requires the msg.sender to be the owner, approved, or operator",
        "params": {
          "from": "current owner of the token",
          "to": "address to receive the ownership of the given token ID",
          "tokenId": "uint256 ID of the token to be transferred"
        }
      },
      "safeTransferFrom(address,address,uint256,bytes)": {
        "details": "Safely transfers the ownership of a given token ID to another address If the target address is a contract, it must implement {IERC721Receiver-onERC721Received}, which is called upon a safe transfer, and return the magic value `bytes4(keccak256(\"onERC721Received(address,address,uint256,bytes)\"))`; otherwise, the transfer is reverted. Requires the _msgSender() to be the owner, approved, or operator",
        "params": {
          "_data": "bytes data to send along with a safe transfer check",
          "from": "current owner of the token",
          "to": "address to receive the ownership of the given token ID",
          "tokenId": "uint256 ID of the token to be transferred"
        }
      },
      "setApprovalForAll(address,bool)": {
        "details": "Sets or unsets the approval of a given operator An operator is allowed to transfer all tokens of the sender on their behalf.",
        "params": {
          "approved": "representing the status of the approval to be set",
          "operator": "operator address to set the approval"
        }
      },
      "supportsInterface(bytes4)": {
        "details": "See {IERC165-supportsInterface}. Time complexity O(1), guaranteed to always use less than 30 000 gas."
      },
      "symbol()": {
        "details": "Gets the token symbol.",
        "returns": {
          "_0": "string representing the token symbol"
        }
      },
      "tokenByIndex(uint256)": {
        "details": "Gets the token ID at a given index of all the tokens in this contract Reverts if the index is greater or equal to the total number of tokens.",
        "params": {
          "index": "uint256 representing the index to be accessed of the tokens list"
        },
        "returns": {
          "_0": "uint256 token ID at the given index of the tokens list"
        }
      },
      "tokenOfOwnerByIndex(address,uint256)": {
        "details": "Gets the token ID at a given index of the tokens list of the requested owner.",
        "params": {
          "index": "uint256 representing the index to be accessed of the requested tokens list",
          "owner": "address owning the tokens list to be accessed"
        },
        "returns": {
          "_0": "uint256 token ID at the given index of the tokens list owned by the requested address"
        }
      },
      "tokenURI(uint256)": {
        "details": "Returns the URI for a given token ID. May return an empty string. If a base URI is set (via {_setBaseURI}), it is added as a prefix to the token's own URI (via {_setTokenURI}). If there is a base URI but no token URI, the token's ID will be used as its URI when appending it to the base URI. This pattern for autogenerated token URIs can lead to large gas savings. .Examples |=== |`_setBaseURI()` |`_setTokenURI()` |`tokenURI()` | \"\" | \"\" | \"\" | \"\" | \"token.uri/123\" | \"token.uri/123\" | \"token.uri/\" | \"123\" | \"token.uri/123\" | \"token.uri/\" | \"\" | \"token.uri/<tokenId>\" |=== Requirements: - `tokenId` must exist."
      },
      "totalSupply()": {
        "details": "Gets the total amount of tokens stored by the contract.",
        "returns": {
          "_0": "uint256 representing the total amount of tokens"
        }
      },
      "transferFrom(address,address,uint256)": {
        "details": "Transfers the ownership of a given token ID to another address. Usage of this method is discouraged, use {safeTransferFrom} whenever possible. Requires the msg.sender to be the owner, approved, or operator.",
        "params": {
          "from": "current owner of the token",
          "to": "address to receive the ownership of the given token ID",
          "tokenId": "uint256 ID of the token to be transferred"
        }
      }
    },
    "version": 1
  },
  "userdoc": {
    "kind": "user",
    "methods": {},
    "version": 1
  }
}