{
  "contractName": "RealEstateBidding",
  "abi": [
    {
      "inputs": [],
      "stateMutability": "payable",
      "type": "constructor"
    },
    {
      "anonymous": false,
      "inputs": [
        {
          "indexed": true,
          "internalType": "address",
          "name": "owner",
          "type": "address"
        },
        {
          "indexed": true,
          "internalType": "address",
          "name": "approved",
          "type": "address"
        },
        {
          "indexed": true,
          "internalType": "uint256",
          "name": "tokenId",
          "type": "uint256"
        }
      ],
      "name": "Approval",
      "type": "event"
    },
    {
      "anonymous": false,
      "inputs": [
        {
          "indexed": true,
          "internalType": "address",
          "name": "owner",
          "type": "address"
        },
        {
          "indexed": true,
          "internalType": "address",
          "name": "operator",
          "type": "address"
        },
        {
          "indexed": false,
          "internalType": "bool",
          "name": "approved",
          "type": "bool"
        }
      ],
      "name": "ApprovalForAll",
      "type": "event"
    },
    {
      "anonymous": false,
      "inputs": [
        {
          "indexed": true,
          "internalType": "address",
          "name": "from",
          "type": "address"
        },
        {
          "indexed": true,
          "internalType": "address",
          "name": "to",
          "type": "address"
        },
        {
          "indexed": true,
          "internalType": "uint256",
          "name": "tokenId",
          "type": "uint256"
        }
      ],
      "name": "Transfer",
      "type": "event"
    },
    {
      "inputs": [
        {
          "internalType": "address",
          "name": "to",
          "type": "address"
        },
        {
          "internalType": "uint256",
          "name": "tokenId",
          "type": "uint256"
        }
      ],
      "name": "approve",
      "outputs": [],
      "stateMutability": "nonpayable",
      "type": "function"
    },
    {
      "inputs": [
        {
          "internalType": "address",
          "name": "owner",
          "type": "address"
        }
      ],
      "name": "balanceOf",
      "outputs": [
        {
          "internalType": "uint256",
          "name": "",
          "type": "uint256"
        }
      ],
      "stateMutability": "view",
      "type": "function"
    },
    {
      "inputs": [],
      "name": "baseURI",
      "outputs": [
        {
          "internalType": "string",
          "name": "",
          "type": "string"
        }
      ],
      "stateMutability": "view",
      "type": "function"
    },
    {
      "inputs": [
        {
          "internalType": "uint256",
          "name": "tokenId",
          "type": "uint256"
        }
      ],
      "name": "getApproved",
      "outputs": [
        {
          "internalType": "address",
          "name": "",
          "type": "address"
        }
      ],
      "stateMutability": "view",
      "type": "function"
    },
    {
      "inputs": [],
      "name": "highestBid",
      "outputs": [
        {
          "internalType": "uint256",
          "name": "",
          "type": "uint256"
        }
      ],
      "stateMutability": "view",
      "type": "function"
    },
    {
      "inputs": [
        {
          "internalType": "address",
          "name": "owner",
          "type": "address"
        },
        {
          "internalType": "address",
          "name": "operator",
          "type": "address"
        }
      ],
      "name": "isApprovedForAll",
      "outputs": [
        {
          "internalType": "bool",
          "name": "",
          "type": "bool"
        }
      ],
      "stateMutability": "view",
      "type": "function"
    },
    {
      "inputs": [],
      "name": "name",
      "outputs": [
        {
          "internalType": "string",
          "name": "",
          "type": "string"
        }
      ],
      "stateMutability": "view",
      "type": "function"
    },
    {
      "inputs": [
        {
          "internalType": "uint256",
          "name": "tokenId",
          "type": "uint256"
        }
      ],
      "name": "ownerOf",
      "outputs": [
        {
          "internalType": "address",
          "name": "",
          "type": "address"
        }
      ],
      "stateMutability": "view",
      "type": "function"
    },
    {
      "inputs": [],
      "name": "propertyID",
      "outputs": [
        {
          "internalType": "uint256",
          "name": "",
          "type": "uint256"
        }
      ],
      "stateMutability": "view",
      "type": "function"
    },
    {
      "inputs": [],
      "name": "realtor",
      "outputs": [
        {
          "internalType": "address",
          "name": "",
          "type": "address"
        }
      ],
      "stateMutability": "view",
      "type": "function"
    },
    {
      "inputs": [
        {
          "internalType": "address",
          "name": "from",
          "type": "address"
        },
        {
          "internalType": "address",
          "name": "to",
          "type": "address"
        },
        {
          "internalType": "uint256",
          "name": "tokenId",
          "type": "uint256"
        }
      ],
      "name": "safeTransferFrom",
      "outputs": [],
      "stateMutability": "nonpayable",
      "type": "function"
    },
    {
      "inputs": [
        {
          "internalType": "address",
          "name": "from",
          "type": "address"
        },
        {
          "internalType": "address",
          "name": "to",
          "type": "address"
        },
        {
          "internalType": "uint256",
          "name": "tokenId",
          "type": "uint256"
        },
        {
          "internalType": "bytes",
          "name": "_data",
          "type": "bytes"
        }
      ],
      "name": "safeTransferFrom",
      "outputs": [],
      "stateMutability": "nonpayable",
      "type": "function"
    },
    {
      "inputs": [
        {
          "internalType": "address",
          "name": "operator",
          "type": "address"
        },
        {
          "internalType": "bool",
          "name": "approved",
          "type": "bool"
        }
      ],
      "name": "setApprovalForAll",
      "outputs": [],
      "stateMutability": "nonpayable",
      "type": "function"
    },
    {
      "inputs": [
        {
          "internalType": "bytes4",
          "name": "interfaceId",
          "type": "bytes4"
        }
      ],
      "name": "supportsInterface",
      "outputs": [
        {
          "internalType": "bool",
          "name": "",
          "type": "bool"
        }
      ],
      "stateMutability": "view",
      "type": "function"
    },
    {
      "inputs": [],
      "name": "symbol",
      "outputs": [
        {
          "internalType": "string",
          "name": "",
          "type": "string"
        }
      ],
      "stateMutability": "view",
      "type": "function"
    },
    {
      "inputs": [
        {
          "internalType": "uint256",
          "name": "index",
          "type": "uint256"
        }
      ],
      "name": "tokenByIndex",
      "outputs": [
        {
          "internalType": "uint256",
          "name": "",
          "type": "uint256"
        }
      ],
      "stateMutability": "view",
      "type": "function"
    },
    {
      "inputs": [
        {
          "internalType": "address",
          "name": "owner",
          "type": "address"
        },
        {
          "internalType": "uint256",
          "name": "index",
          "type": "uint256"
        }
      ],
      "name": "tokenOfOwnerByIndex",
      "outputs": [
        {
          "internalType": "uint256",
          "name": "",
          "type": "uint256"
        }
      ],
      "stateMutability": "view",
      "type": "function"
    },
    {
      "inputs": [
        {
          "internalType": "uint256",
          "name": "tokenId",
          "type": "uint256"
        }
      ],
      "name": "tokenURI",
      "outputs": [
        {
          "internalType": "string",
          "name": "",
          "type": "string"
        }
      ],
      "stateMutability": "view",
      "type": "function"
    },
    {
      "inputs": [],
      "name": "totalSupply",
      "outputs": [
        {
          "internalType": "uint256",
          "name": "",
          "type": "uint256"
        }
      ],
      "stateMutability": "view",
      "type": "function"
    },
    {
      "inputs": [
        {
          "internalType": "address",
          "name": "from",
          "type": "address"
        },
        {
          "internalType": "address",
          "name": "to",
          "type": "address"
        },
        {
          "internalType": "uint256",
          "name": "tokenId",
          "type": "uint256"
        }
      ],
      "name": "transferFrom",
      "outputs": [],
      "stateMutability": "nonpayable",
      "type": "function"
    },
    {
      "inputs": [],
      "name": "winner",
      "outputs": [
        {
          "internalType": "address",
          "name": "",
          "type": "address"
        }
      ],
      "stateMutability": "view",
      "type": "function"
    },
    {
      "inputs": [
        {
          "internalType": "uint256",
          "name": "propID",
          "type": "uint256"
        }
      ],
      "name": "mint",
      "outputs": [],
      "stateMutability": "nonpayable",
      "type": "function"
    },
    {
      "inputs": [
        {
          "internalType": "uint256",
          "name": "id",
          "type": "uint256"
        }
      ],
      "name": "setPropertyID",
      "outputs": [],
      "stateMutability": "nonpayable",
      "type": "function"
    },
    {
      "inputs": [],
      "name": "register",
      "outputs": [],
      "stateMutability": "payable",
      "type": "function"
    },
    {
      "inputs": [],
      "name": "initializeBidding",
      "outputs": [],
      "stateMutability": "nonpayable",
      "type": "function"
    },
    {
      "inputs": [
        {
          "internalType": "uint256",
          "name": "amount",
          "type": "uint256"
        }
      ],
      "name": "bid",
      "outputs": [],
      "stateMutability": "payable",
      "type": "function"
    },
    {
      "inputs": [],
      "name": "declareWinner",
      "outputs": [
        {
          "internalType": "address",
          "name": "",
          "type": "address"
        }
      ],
      "stateMutability": "nonpayable",
      "type": "function"
    }
  ],
  "bytecode": "0x60806040526040518060400160405280601181526020017f5265616c45737461746542696464696e670000000000000000000000000000008152506040518060400160405280600381526020017f5245420000000000000000000000000000000000000000000000000000000000815250620000886301ffc9a760e01b6200018460201b60201c565b8160069080519060200190620000a09291906200028d565b508060079080519060200190620000b99291906200028d565b50620000d26380ac58cd60e01b6200018460201b60201c565b620000ea635b5e139f60e01b6200018460201b60201c565b6200010263780e9d6360e01b6200018460201b60201c565b505033600a60006101000a81548173ffffffffffffffffffffffffffffffffffffffff021916908373ffffffffffffffffffffffffffffffffffffffff160217905550600060196000018190555060006019600101819055506000600c819055506000600d60006101000a81548160ff0219169083151502179055506200033c565b63ffffffff60e01b817bffffffffffffffffffffffffffffffffffffffffffffffffffffffff1916141562000221576040517f08c379a000000000000000000000000000000000000000000000000000000000815260040180806020018281038252601c8152602001807f4552433136353a20696e76616c696420696e746572666163652069640000000081525060200191505060405180910390fd5b6001600080837bffffffffffffffffffffffffffffffffffffffffffffffffffffffff19167bffffffffffffffffffffffffffffffffffffffffffffffffffffffff1916815260200190815260200160002060006101000a81548160ff02191690831515021790555050565b828054600181600116156101000203166002900490600052602060002090601f016020900481019282601f10620002d057805160ff191683800117855562000301565b8280016001018555821562000301579182015b8281111562000300578251825591602001919060010190620002e3565b5b50905062000310919062000314565b5090565b6200033991905b80821115620003355760008160009055506001016200031b565b5090565b90565b6134ab806200034c6000396000f3fe60806040526004361061019c5760003560e01c80636352211e116100ec578063af7003531161008a578063c87b56dd11610064578063c87b56dd14610a65578063d57bde7914610b19578063dfbf53ae14610b44578063e985e9c514610b9b5761019c565b8063af70035314610901578063b88d4fde14610918578063c6f2a96914610a2a5761019c565b806395d89b41116100c657806395d89b41146107ae578063a0712d681461083e578063a22cb46514610879578063a23342de146108d65761019c565b80636352211e1461063e5780636c0360eb146106b957806370a08231146107495761019c565b80631aa3a008116101595780633e23b9f9116101335780633e23b9f9146104ef57806342842e0e14610546578063454a2ab3146105c15780634f6ccce7146105ef5761019c565b80631aa3a008146103fb57806323b872dd146104055780632f745c59146104805761019c565b806301ffc9a7146101a157806306fdde0314610213578063081812fc146102a3578063095ea7b31461031e57806314034bd21461037957806318160ddd146103d0575b600080fd5b3480156101ad57600080fd5b506101f9600480360360208110156101c457600080fd5b8101908080357bffffffffffffffffffffffffffffffffffffffffffffffffffffffff19169060200190929190505050610c24565b604051808215151515815260200191505060405180910390f35b34801561021f57600080fd5b50610228610c8b565b6040518080602001828103825283818151815260200191508051906020019080838360005b8381101561026857808201518184015260208101905061024d565b50505050905090810190601f1680156102955780820380516001836020036101000a031916815260200191505b509250505060405180910390f35b3480156102af57600080fd5b506102dc600480360360208110156102c657600080fd5b8101908080359060200190929190505050610d2d565b604051808273ffffffffffffffffffffffffffffffffffffffff1673ffffffffffffffffffffffffffffffffffffffff16815260200191505060405180910390f35b34801561032a57600080fd5b506103776004803603604081101561034157600080fd5b81019080803573ffffffffffffffffffffffffffffffffffffffff16906020019092919080359060200190929190505050610dc8565b005b34801561038557600080fd5b5061038e610f0c565b604051808273ffffffffffffffffffffffffffffffffffffffff1673ffffffffffffffffffffffffffffffffffffffff16815260200191505060405180910390f35b3480156103dc57600080fd5b506103e561108d565b6040518082815260200191505060405180910390f35b61040361109e565b005b34801561041157600080fd5b5061047e6004803603606081101561042857600080fd5b81019080803573ffffffffffffffffffffffffffffffffffffffff169060200190929190803573ffffffffffffffffffffffffffffffffffffffff16906020019092919080359060200190929190505050611322565b005b34801561048c57600080fd5b506104d9600480360360408110156104a357600080fd5b81019080803573ffffffffffffffffffffffffffffffffffffffff16906020019092919080359060200190929190505050611398565b6040518082815260200191505060405180910390f35b3480156104fb57600080fd5b506105046113f3565b604051808273ffffffffffffffffffffffffffffffffffffffff1673ffffffffffffffffffffffffffffffffffffffff16815260200191505060405180910390f35b34801561055257600080fd5b506105bf6004803603606081101561056957600080fd5b81019080803573ffffffffffffffffffffffffffffffffffffffff169060200190929190803573ffffffffffffffffffffffffffffffffffffffff16906020019092919080359060200190929190505050611419565b005b6105ed600480360360208110156105d757600080fd5b8101908080359060200190929190505050611439565b005b3480156105fb57600080fd5b506106286004803603602081101561061257600080fd5b8101908080359060200190929190505050611677565b6040518082815260200191505060405180910390f35b34801561064a57600080fd5b506106776004803603602081101561066157600080fd5b810190808035906020019092919050505061169a565b604051808273ffffffffffffffffffffffffffffffffffffffff1673ffffffffffffffffffffffffffffffffffffffff16815260200191505060405180910390f35b3480156106c557600080fd5b506106ce6116d1565b6040518080602001828103825283818151815260200191508051906020019080838360005b8381101561070e5780820151818401526020810190506106f3565b50505050905090810190601f16801561073b5780820380516001836020036101000a031916815260200191505b509250505060405180910390f35b34801561075557600080fd5b506107986004803603602081101561076c57600080fd5b81019080803573ffffffffffffffffffffffffffffffffffffffff169060200190929190505050611773565b6040518082815260200191505060405180910390f35b3480156107ba57600080fd5b506107c3611848565b6040518080602001828103825283818151815260200191508051906020019080838360005b838110156108035780820151818401526020810190506107e8565b50505050905090810190601f1680156108305780820380516001836020036101000a031916815260200191505b509250505060405180910390f35b34801561084a57600080fd5b506108776004803603602081101561086157600080fd5b81019080803590602001909291905050506118ea565b005b34801561088557600080fd5b506108d46004803603604081101561089c57600080fd5b81019080803573ffffffffffffffffffffffffffffffffffffffff1690602001909291908035151590602001909291905050506118f7565b005b3480156108e257600080fd5b506108eb611aaf565b6040518082815260200191505060405180910390f35b34801561090d57600080fd5b50610916611ab5565b005b34801561092457600080fd5b50610a286004803603608081101561093b57600080fd5b81019080803573ffffffffffffffffffffffffffffffffffffffff169060200190929190803573ffffffffffffffffffffffffffffffffffffffff16906020019092919080359060200190929190803590602001906401000000008111156109a257600080fd5b8201836020820111156109b457600080fd5b803590602001918460018302840111640100000000831117156109d657600080fd5b91908080601f016020809104026020016040519081016040528093929190818152602001838380828437600081840152601f19601f820116905080830192505050505050509192919290505050611b78565b005b348015610a3657600080fd5b50610a6360048036036020811015610a4d57600080fd5b8101908080359060200190929190505050611bf0565b005b348015610a7157600080fd5b50610a9e60048036036020811015610a8857600080fd5b8101908080359060200190929190505050611d30565b6040518080602001828103825283818151815260200191508051906020019080838360005b83811015610ade578082015181840152602081019050610ac3565b50505050905090810190601f168015610b0b5780820380516001836020036101000a031916815260200191505b509250505060405180910390f35b348015610b2557600080fd5b50610b2e612019565b6040518082815260200191505060405180910390f35b348015610b5057600080fd5b50610b5961201f565b604051808273ffffffffffffffffffffffffffffffffffffffff1673ffffffffffffffffffffffffffffffffffffffff16815260200191505060405180910390f35b348015610ba757600080fd5b50610c0a60048036036040811015610bbe57600080fd5b81019080803573ffffffffffffffffffffffffffffffffffffffff169060200190929190803573ffffffffffffffffffffffffffffffffffffffff169060200190929190505050612045565b604051808215151515815260200191505060405180910390f35b6000806000837bffffffffffffffffffffffffffffffffffffffffffffffffffffffff19167bffffffffffffffffffffffffffffffffffffffffffffffffffffffff1916815260200190815260200160002060009054906101000a900460ff169050919050565b606060068054600181600116156101000203166002900480601f016020809104026020016040519081016040528092919081815260200182805460018160011615610100020316600290048015610d235780601f10610cf857610100808354040283529160200191610d23565b820191906000526020600020905b815481529060010190602001808311610d0657829003601f168201915b5050505050905090565b6000610d38826120d9565b610d8d576040517f08c379a000000000000000000000000000000000000000000000000000000000815260040180806020018281038252602c81526020018061334e602c913960400191505060405180910390fd5b6004600083815260200190815260200160002060009054906101000a900473ffffffffffffffffffffffffffffffffffffffff169050919050565b6000610dd38261169a565b90508073ffffffffffffffffffffffffffffffffffffffff168373ffffffffffffffffffffffffffffffffffffffff161415610e5a576040517f08c379a00000000000000000000000000000000000000000000000000000000081526004018080602001828103825260218152602001806133f66021913960400191505060405180910390fd5b8073ffffffffffffffffffffffffffffffffffffffff16610e796120f6565b73ffffffffffffffffffffffffffffffffffffffff161480610ea85750610ea781610ea26120f6565b612045565b5b610efd576040517f08c379a00000000000000000000000000000000000000000000000000000000081526004018080602001828103825260388152602001806132a16038913960400191505060405180910390fd5b610f0783836120fe565b505050565b6000600a60009054906101000a900473ffffffffffffffffffffffffffffffffffffffff1673ffffffffffffffffffffffffffffffffffffffff163373ffffffffffffffffffffffffffffffffffffffff1614610fb4576040517f08c379a00000000000000000000000000000000000000000000000000000000081526004018080602001828103825260248152602001806133d26024913960400191505060405180910390fd5b60008090505b600581101561106457600c54600f8260058110610fd357fe5b6002020160010154141561105757600f8160058110610fee57fe5b6002020160000160009054906101000a900473ffffffffffffffffffffffffffffffffffffffff16600d60016101000a81548173ffffffffffffffffffffffffffffffffffffffff021916908373ffffffffffffffffffffffffffffffffffffffff1602179055505b8080600101915050610fba565b50600d60019054906101000a900473ffffffffffffffffffffffffffffffffffffffff16905090565b600061109960026121b7565b905090565b600a60009054906101000a900473ffffffffffffffffffffffffffffffffffffffff1673ffffffffffffffffffffffffffffffffffffffff163373ffffffffffffffffffffffffffffffffffffffff161415611162576040517f08c379a000000000000000000000000000000000000000000000000000000000815260040180806020018281038252601a8152602001807f5265616c746f722063616e6e6f7420626520612062696464657200000000000081525060200191505060405180910390fd5b6005601960010154106111c0576040517f08c379a000000000000000000000000000000000000000000000000000000000815260040180806020018281038252602e815260200180613417602e913960400191505060405180910390fd5b60008090505b60058110156112b257600f81600581106111dc57fe5b6002020160000160009054906101000a900473ffffffffffffffffffffffffffffffffffffffff1673ffffffffffffffffffffffffffffffffffffffff163373ffffffffffffffffffffffffffffffffffffffff1614156112a5576040517f08c379a000000000000000000000000000000000000000000000000000000000815260040180806020018281038252601d8152602001807f4269646465722068617320616c7265616479207265676973746572656400000081525060200191505060405180910390fd5b80806001019150506111c6565b5033600f601960010154600581106112c657fe5b6002020160000160006101000a81548173ffffffffffffffffffffffffffffffffffffffff021916908373ffffffffffffffffffffffffffffffffffffffff160217905550601960010160008154809291906001019190505550565b61133361132d6120f6565b826121cc565b611388576040517f08c379a00000000000000000000000000000000000000000000000000000000081526004018080602001828103825260318152602001806134456031913960400191505060405180910390fd5b6113938383836122c0565b505050565b60006113eb82600160008673ffffffffffffffffffffffffffffffffffffffff1673ffffffffffffffffffffffffffffffffffffffff16815260200190815260200160002061250390919063ffffffff16565b905092915050565b600a60009054906101000a900473ffffffffffffffffffffffffffffffffffffffff1681565b61143483838360405180602001604052806000815250611b78565b505050565b60011515600d60009054906101000a900460ff161515146114c2576040517f08c379a000000000000000000000000000000000000000000000000000000000815260040180806020018281038252601b8152602001807f42696464696e6720686173206e6f74207965742073746172746564000000000081525060200191505060405180910390fd5b600c54811161151c576040517f08c379a000000000000000000000000000000000000000000000000000000000815260040180806020018281038252602b815260200180613226602b913960400191505060405180910390fd5b600080905060008090505b60058110156115aa573373ffffffffffffffffffffffffffffffffffffffff16600f826005811061155457fe5b6002020160000160009054906101000a900473ffffffffffffffffffffffffffffffffffffffff1673ffffffffffffffffffffffffffffffffffffffff16141561159d57600191505b8080600101915050611527565b506001151581151514611625576040517f08c379a00000000000000000000000000000000000000000000000000000000081526004018080602001828103825260188152602001807f426964646572206973206e6f742072656769737465726564000000000000000081525060200191505060405180910390fd5b81600c8190555081600e60003373ffffffffffffffffffffffffffffffffffffffff1673ffffffffffffffffffffffffffffffffffffffff168152602001908152602001600020600101819055505050565b60008061168e83600261251d90919063ffffffff16565b50905080915050919050565b60006116ca8260405180606001604052806029815260200161330360299139600261254c9092919063ffffffff16565b9050919050565b606060098054600181600116156101000203166002900480601f0160208091040260200160405190810160405280929190818152602001828054600181600116156101000203166002900480156117695780601f1061173e57610100808354040283529160200191611769565b820191906000526020600020905b81548152906001019060200180831161174c57829003601f168201915b5050505050905090565b60008073ffffffffffffffffffffffffffffffffffffffff168273ffffffffffffffffffffffffffffffffffffffff1614156117fa576040517f08c379a000000000000000000000000000000000000000000000000000000000815260040180806020018281038252602a8152602001806132d9602a913960400191505060405180910390fd5b611841600160008473ffffffffffffffffffffffffffffffffffffffff1673ffffffffffffffffffffffffffffffffffffffff16815260200190815260200160002061256b565b9050919050565b606060078054600181600116156101000203166002900480601f0160208091040260200160405190810160405280929190818152602001828054600181600116156101000203166002900480156118e05780601f106118b5576101008083540402835291602001916118e0565b820191906000526020600020905b8154815290600101906020018083116118c357829003601f168201915b5050505050905090565b6118f43382612580565b50565b6118ff6120f6565b73ffffffffffffffffffffffffffffffffffffffff168273ffffffffffffffffffffffffffffffffffffffff1614156119a0576040517f08c379a00000000000000000000000000000000000000000000000000000000081526004018080602001828103825260198152602001807f4552433732313a20617070726f766520746f2063616c6c65720000000000000081525060200191505060405180910390fd5b80600560006119ad6120f6565b73ffffffffffffffffffffffffffffffffffffffff1673ffffffffffffffffffffffffffffffffffffffff16815260200190815260200160002060008473ffffffffffffffffffffffffffffffffffffffff1673ffffffffffffffffffffffffffffffffffffffff16815260200190815260200160002060006101000a81548160ff0219169083151502179055508173ffffffffffffffffffffffffffffffffffffffff16611a5a6120f6565b73ffffffffffffffffffffffffffffffffffffffff167f17307eab39ab6107e8899845ad3d59bd9653f200f220920489ca2b5937696c3183604051808215151515815260200191505060405180910390a35050565b600b5481565b600a60009054906101000a900473ffffffffffffffffffffffffffffffffffffffff1673ffffffffffffffffffffffffffffffffffffffff163373ffffffffffffffffffffffffffffffffffffffff1614611b5b576040517f08c379a00000000000000000000000000000000000000000000000000000000081526004018080602001828103825260248152602001806133d26024913960400191505060405180910390fd5b6001600d60006101000a81548160ff021916908315150217905550565b611b89611b836120f6565b836121cc565b611bde576040517f08c379a00000000000000000000000000000000000000000000000000000000081526004018080602001828103825260318152602001806134456031913960400191505060405180910390fd5b611bea84848484612774565b50505050565b600a60009054906101000a900473ffffffffffffffffffffffffffffffffffffffff1673ffffffffffffffffffffffffffffffffffffffff163373ffffffffffffffffffffffffffffffffffffffff1614611c96576040517f08c379a00000000000000000000000000000000000000000000000000000000081526004018080602001828103825260248152602001806133d26024913960400191505060405180910390fd5b600060196000015414611d11576040517f08c379a000000000000000000000000000000000000000000000000000000000815260040180806020018281038252601d8152602001807f50726f70657274792068617320616c7265616479206265656e2073657400000081525060200191505060405180910390fd5b60196000016000815480929190600101919050555080600b8190555050565b6060611d3b826120d9565b611d90576040517f08c379a000000000000000000000000000000000000000000000000000000000815260040180806020018281038252602f8152602001806133a3602f913960400191505060405180910390fd5b6060600860008481526020019081526020016000208054600181600116156101000203166002900480601f016020809104026020016040519081016040528092919081815260200182805460018160011615610100020316600290048015611e395780601f10611e0e57610100808354040283529160200191611e39565b820191906000526020600020905b815481529060010190602001808311611e1c57829003601f168201915b50505050509050600060098054600181600116156101000203166002900490501415611e685780915050612014565b600081511115611f41576009816040516020018083805460018160011615610100020316600290048015611ed35780601f10611eb1576101008083540402835291820191611ed3565b820191906000526020600020905b815481529060010190602001808311611ebf575b505082805190602001908083835b60208310611f045780518252602082019150602081019050602083039250611ee1565b6001836020036101000a03801982511681845116808217855250505050505090500192505050604051602081830303815290604052915050612014565b6009611f4c846127e6565b6040516020018083805460018160011615610100020316600290048015611faa5780601f10611f88576101008083540402835291820191611faa565b820191906000526020600020905b815481529060010190602001808311611f96575b505082805190602001908083835b60208310611fdb5780518252602082019150602081019050602083039250611fb8565b6001836020036101000a038019825116818451168082178552505050505050905001925050506040516020818303038152906040529150505b919050565b600c5481565b600d60019054906101000a900473ffffffffffffffffffffffffffffffffffffffff1681565b6000600560008473ffffffffffffffffffffffffffffffffffffffff1673ffffffffffffffffffffffffffffffffffffffff16815260200190815260200160002060008373ffffffffffffffffffffffffffffffffffffffff1673ffffffffffffffffffffffffffffffffffffffff16815260200190815260200160002060009054906101000a900460ff16905092915050565b60006120ef82600261292d90919063ffffffff16565b9050919050565b600033905090565b816004600083815260200190815260200160002060006101000a81548173ffffffffffffffffffffffffffffffffffffffff021916908373ffffffffffffffffffffffffffffffffffffffff160217905550808273ffffffffffffffffffffffffffffffffffffffff166121718361169a565b73ffffffffffffffffffffffffffffffffffffffff167f8c5be1e5ebec7d5bd14f71427d1e84f3dd0314c0f7b2291e5b200ac8c7c3b92560405160405180910390a45050565b60006121c582600001612947565b9050919050565b60006121d7826120d9565b61222c576040517f08c379a000000000000000000000000000000000000000000000000000000000815260040180806020018281038252602c815260200180613275602c913960400191505060405180910390fd5b60006122378361169a565b90508073ffffffffffffffffffffffffffffffffffffffff168473ffffffffffffffffffffffffffffffffffffffff1614806122a657508373ffffffffffffffffffffffffffffffffffffffff1661228e84610d2d565b73ffffffffffffffffffffffffffffffffffffffff16145b806122b757506122b68185612045565b5b91505092915050565b8273ffffffffffffffffffffffffffffffffffffffff166122e08261169a565b73ffffffffffffffffffffffffffffffffffffffff161461234c576040517f08c379a000000000000000000000000000000000000000000000000000000000815260040180806020018281038252602981526020018061337a6029913960400191505060405180910390fd5b600073ffffffffffffffffffffffffffffffffffffffff168273ffffffffffffffffffffffffffffffffffffffff1614156123d2576040517f08c379a00000000000000000000000000000000000000000000000000000000081526004018080602001828103825260248152602001806132516024913960400191505060405180910390fd5b6123dd838383612958565b6123e86000826120fe565b61243981600160008673ffffffffffffffffffffffffffffffffffffffff1673ffffffffffffffffffffffffffffffffffffffff16815260200190815260200160002061295d90919063ffffffff16565b5061248b81600160008573ffffffffffffffffffffffffffffffffffffffff1673ffffffffffffffffffffffffffffffffffffffff16815260200190815260200160002061297790919063ffffffff16565b506124a2818360026129919092919063ffffffff16565b50808273ffffffffffffffffffffffffffffffffffffffff168473ffffffffffffffffffffffffffffffffffffffff167fddf252ad1be2c89b69c2b068fc378daa952ba7f163c4a11628f55a4df523b3ef60405160405180910390a4505050565b600061251283600001836129c6565b60001c905092915050565b6000806000806125308660000186612a49565b915091508160001c8160001c8090509350935050509250929050565b600061255f846000018460001b84612ae2565b60001c90509392505050565b600061257982600001612bd8565b9050919050565b600073ffffffffffffffffffffffffffffffffffffffff168273ffffffffffffffffffffffffffffffffffffffff161415612623576040517f08c379a00000000000000000000000000000000000000000000000000000000081526004018080602001828103825260208152602001807f4552433732313a206d696e7420746f20746865207a65726f206164647265737381525060200191505060405180910390fd5b61262c816120d9565b1561269f576040517f08c379a000000000000000000000000000000000000000000000000000000000815260040180806020018281038252601c8152602001807f4552433732313a20746f6b656e20616c7265616479206d696e7465640000000081525060200191505060405180910390fd5b6126ab60008383612958565b6126fc81600160008573ffffffffffffffffffffffffffffffffffffffff1673ffffffffffffffffffffffffffffffffffffffff16815260200190815260200160002061297790919063ffffffff16565b50612713818360026129919092919063ffffffff16565b50808273ffffffffffffffffffffffffffffffffffffffff16600073ffffffffffffffffffffffffffffffffffffffff167fddf252ad1be2c89b69c2b068fc378daa952ba7f163c4a11628f55a4df523b3ef60405160405180910390a45050565b61277f8484846122c0565b61278b84848484612be9565b6127e0576040517f08c379a00000000000000000000000000000000000000000000000000000000081526004018080602001828103825260328152602001806131f46032913960400191505060405180910390fd5b50505050565b6060600082141561282e576040518060400160405280600181526020017f30000000000000000000000000000000000000000000000000000000000000008152509050612928565b600082905060005b60008214612858578080600101915050600a828161285057fe5b049150612836565b60608167ffffffffffffffff8111801561287157600080fd5b506040519080825280601f01601f1916602001820160405280156128a45781602001600182028036833780820191505090505b50905060006001830390508593505b6000841461292057600a84816128c557fe5b0660300160f81b828280600190039350815181106128df57fe5b60200101907effffffffffffffffffffffffffffffffffffffffffffffffffffffffffffff1916908160001a905350600a848161291857fe5b0493506128b3565b819450505050505b919050565b600061293f836000018360001b612f0c565b905092915050565b600081600001805490509050919050565b505050565b600061296f836000018360001b612f2f565b905092915050565b6000612989836000018360001b613017565b905092915050565b60006129bd846000018460001b8473ffffffffffffffffffffffffffffffffffffffff1660001b613087565b90509392505050565b600081836000018054905011612a27576040517f08c379a00000000000000000000000000000000000000000000000000000000081526004018080602001828103825260228152602001806131d26022913960400191505060405180910390fd5b826000018281548110612a3657fe5b9060005260206000200154905092915050565b60008082846000018054905011612aab576040517f08c379a000000000000000000000000000000000000000000000000000000000815260040180806020018281038252602281526020018061332c6022913960400191505060405180910390fd5b6000846000018481548110612abc57fe5b906000526020600020906002020190508060000154816001015492509250509250929050565b60008084600101600085815260200190815260200160002054905060008114158390612ba9576040517f08c379a00000000000000000000000000000000000000000000000000000000081526004018080602001828103825283818151815260200191508051906020019080838360005b83811015612b6e578082015181840152602081019050612b53565b50505050905090810190601f168015612b9b5780820380516001836020036101000a031916815260200191505b509250505060405180910390fd5b50846000016001820381548110612bbc57fe5b9060005260206000209060020201600101549150509392505050565b600081600001805490509050919050565b6000612c0a8473ffffffffffffffffffffffffffffffffffffffff16613163565b612c175760019050612f04565b600060608573ffffffffffffffffffffffffffffffffffffffff1663150b7a0260e01b612c426120f6565b898888604051602401808573ffffffffffffffffffffffffffffffffffffffff1673ffffffffffffffffffffffffffffffffffffffff1681526020018473ffffffffffffffffffffffffffffffffffffffff1673ffffffffffffffffffffffffffffffffffffffff16815260200183815260200180602001828103825283818151815260200191508051906020019080838360005b83811015612cf2578082015181840152602081019050612cd7565b50505050905090810190601f168015612d1f5780820380516001836020036101000a031916815260200191505b5095505050505050604051602081830303815290604052907bffffffffffffffffffffffffffffffffffffffffffffffffffffffff19166020820180517bffffffffffffffffffffffffffffffffffffffffffffffffffffffff83818316178352505050506040518082805190602001908083835b60208310612db75780518252602082019150602081019050602083039250612d94565b6001836020036101000a0380198251168184511680821785525050505050509050019150506000604051808303816000865af19150503d8060008114612e19576040519150601f19603f3d011682016040523d82523d6000602084013e612e1e565b606091505b509150915081612e8c57600081511115612e3b5780518082602001fd5b6040517f08c379a00000000000000000000000000000000000000000000000000000000081526004018080602001828103825260328152602001806131f46032913960400191505060405180910390fd5b6000818060200190516020811015612ea357600080fd5b8101908080519060200190929190505050905063150b7a0260e01b7bffffffffffffffffffffffffffffffffffffffffffffffffffffffff1916817bffffffffffffffffffffffffffffffffffffffffffffffffffffffff19161493505050505b949350505050565b600080836001016000848152602001908152602001600020541415905092915050565b6000808360010160008481526020019081526020016000205490506000811461300b5760006001820390506000600186600001805490500390506000866000018281548110612f7a57fe5b9060005260206000200154905080876000018481548110612f9757fe5b9060005260206000200181905550600183018760010160008381526020019081526020016000208190555086600001805480612fcf57fe5b60019003818190600052602060002001600090559055866001016000878152602001908152602001600020600090556001945050505050613011565b60009150505b92915050565b600061302383836131ae565b61307c578260000182908060018154018082558091505060019003906000526020600020016000909190919091505582600001805490508360010160008481526020019081526020016000208190555060019050613081565b600090505b92915050565b600080846001016000858152602001908152602001600020549050600081141561312e5784600001604051806040016040528086815260200185815250908060018154018082558091505060019003906000526020600020906002020160009091909190915060008201518160000155602082015181600101555050846000018054905085600101600086815260200190815260200160002081905550600191505061315c565b8285600001600183038154811061314157fe5b90600052602060002090600202016001018190555060009150505b9392505050565b60008060007fc5d2460186f7233c927e7db2dcc703c0e500b653ca82273b7bfad8045d85a47060001b9050833f91508082141580156131a557506000801b8214155b92505050919050565b60008083600101600084815260200190815260200160002054141590509291505056fe456e756d657261626c655365743a20696e646578206f7574206f6620626f756e64734552433732313a207472616e7366657220746f206e6f6e20455243373231526563656976657220696d706c656d656e746572416d6f756e74206973206c657373207468616e206f7220657175616c20746f2068696768657374206269644552433732313a207472616e7366657220746f20746865207a65726f20616464726573734552433732313a206f70657261746f7220717565727920666f72206e6f6e6578697374656e7420746f6b656e4552433732313a20617070726f76652063616c6c6572206973206e6f74206f776e6572206e6f7220617070726f76656420666f7220616c6c4552433732313a2062616c616e636520717565727920666f7220746865207a65726f20616464726573734552433732313a206f776e657220717565727920666f72206e6f6e6578697374656e7420746f6b656e456e756d657261626c654d61703a20696e646578206f7574206f6620626f756e64734552433732313a20617070726f76656420717565727920666f72206e6f6e6578697374656e7420746f6b656e4552433732313a207472616e73666572206f6620746f6b656e2074686174206973206e6f74206f776e4552433732314d657461646174613a2055524920717565727920666f72206e6f6e6578697374656e7420746f6b656e4f6e6c79207265616c746f722063616e2063616c6c20746869732066756e6374696f6e2e4552433732313a20617070726f76616c20746f2063757272656e74206f776e65724d6178696d756d206e756d626572206f6620626964646572732068617665206265656e20726567697374657265644552433732313a207472616e736665722063616c6c6572206973206e6f74206f776e6572206e6f7220617070726f766564a264697066735822122003373dc08220e6182c22f87f012af149c6e001d156c11ea96d43c5d88edd258764736f6c634300060a0033",
  "immutableReferences": {},
  "source": "//SPDX-License-Identifier: MIT\n\npragma solidity ^0.6.0;\n\nimport \"./ERC721.sol\";\n\ncontract RealEstateBidding is ERC721 {\n    address public realtor;\n    uint public propertyID;\n    uint public highestBid;\n    bool private beginBidding;\n    address public winner;\n    \n    struct CounterStruct{\n        uint setProperty;\n        uint bidderCount;\n    }\n    \n    struct Bidder {\n        address addr;\n        uint bidAmount;\n    }\n    \n    mapping(address => Bidder) bidderDetails;\n    \n    Bidder[5] bidders;\n    \n    CounterStruct internal counters;\n    \n    constructor() ERC721(\"RealEstateBidding\",\"REB\") public payable {\n        realtor = msg.sender;\n        counters.setProperty = 0;\n        counters.bidderCount = 0;\n        highestBid = 0;\n        beginBidding = false;\n    }\n\n    function mint(uint propID) public {\n \n        _mint(msg.sender, propID);\n        \n    }\n    \n    modifier onlyRealtor {\n        require(\n            msg.sender == realtor,\n            \"Only realtor can call this function.\"\n        );\n        _;\n    }\n    \n    function setPropertyID(uint id) public onlyRealtor {\n        require(counters.setProperty == 0, \"Property has already been set\");\n        counters.setProperty++;\n        propertyID = id;\n    }\n    \n    function register() public payable {\n        require(msg.sender != realtor, \"Realtor cannot be a bidder\");\n        require(counters.bidderCount < 5, \"Maximum number of bidders have been registered\");\n        for(uint i = 0; i < 5; i++) {\n            require(msg.sender != bidders[i].addr,\"Bidder has already registered\");\n        }\n        \n        bidders[counters.bidderCount].addr = msg.sender;\n        counters.bidderCount++;\n        \n    }\n    \n    function initializeBidding() public onlyRealtor {\n        beginBidding = true;\n    }\n    \n    function bid(uint amount) public payable{\n        require(beginBidding == true, \"Bidding has not yet started\");\n        require(amount > highestBid, \"Amount is less than or equal to highest bid\");\n        bool registered = false;\n        for (uint i = 0; i < 5; i++){\n            if(bidders[i].addr == msg.sender){\n                registered = true;\n            }\n        }\n        require(registered == true, \"Bidder is not registered\");\n        highestBid = amount;\n        bidderDetails[msg.sender].bidAmount = amount;\n        \n    }\n    \n    function declareWinner() public onlyRealtor returns (address){\n        for(uint i = 0; i < 5; i++){\n            if(bidders[i].bidAmount == highestBid){\n                winner = bidders[i].addr;\n            }\n        }\n        \n        return winner;\n    }\n    \n    \n    \n}",
  "sourcePath": "/Users/malhar197/Desktop/Blockchain-Design/final-project-smart-contract/contracts/RealEstateBidding.sol",
  "compiler": {
    "name": "solc",
    "version": "0.6.10+commit.00c0fcaf.Emscripten.clang"
  },
  "schemaVersion": "3.1.0",
  "updatedAt": "2020-06-15T18:14:14.588Z",
  "devdoc": {
    "methods": {
      "approve(address,uint256)": {
        "details": "Approves another address to transfer the given token ID The zero address indicates there is no approved address. There can only be one approved address per token at a given time. Can only be called by the token owner or an approved operator.",
        "params": {
          "to": "address to be approved for the given token ID",
          "tokenId": "uint256 ID of the token to be approved"
        }
      },
      "balanceOf(address)": {
        "details": "Gets the balance of the specified address.",
        "params": {
          "owner": "address to query the balance of"
        },
        "returns": {
          "_0": "uint256 representing the amount owned by the passed address"
        }
      },
      "baseURI()": {
        "details": "Returns the base URI set via {_setBaseURI}. This will be automatically added as a prefix in {tokenURI} to each token's URI, or to the token ID if no specific URI is set for that token ID."
      },
      "getApproved(uint256)": {
        "details": "Gets the approved address for a token ID, or zero if no address set Reverts if the token ID does not exist.",
        "params": {
          "tokenId": "uint256 ID of the token to query the approval of"
        },
        "returns": {
          "_0": "address currently approved for the given token ID"
        }
      },
      "isApprovedForAll(address,address)": {
        "details": "Tells whether an operator is approved by a given owner.",
        "params": {
          "operator": "operator address which you want to query the approval of",
          "owner": "owner address which you want to query the approval of"
        },
        "returns": {
          "_0": "bool whether the given operator is approved by the given owner"
        }
      },
      "name()": {
        "details": "Gets the token name.",
        "returns": {
          "_0": "string representing the token name"
        }
      },
      "ownerOf(uint256)": {
        "details": "Gets the owner of the specified token ID.",
        "params": {
          "tokenId": "uint256 ID of the token to query the owner of"
        },
        "returns": {
          "_0": "address currently marked as the owner of the given token ID"
        }
      },
      "safeTransferFrom(address,address,uint256)": {
        "details": "Safely transfers the ownership of a given token ID to another address If the target address is a contract, it must implement {IERC721Receiver-onERC721Received}, which is called upon a safe transfer, and return the magic value `bytes4(keccak256(\"onERC721Received(address,address,uint256,bytes)\"))`; otherwise, the transfer is reverted. Requires the msg.sender to be the owner, approved, or operator",
        "params": {
          "from": "current owner of the token",
          "to": "address to receive the ownership of the given token ID",
          "tokenId": "uint256 ID of the token to be transferred"
        }
      },
      "safeTransferFrom(address,address,uint256,bytes)": {
        "details": "Safely transfers the ownership of a given token ID to another address If the target address is a contract, it must implement {IERC721Receiver-onERC721Received}, which is called upon a safe transfer, and return the magic value `bytes4(keccak256(\"onERC721Received(address,address,uint256,bytes)\"))`; otherwise, the transfer is reverted. Requires the _msgSender() to be the owner, approved, or operator",
        "params": {
          "_data": "bytes data to send along with a safe transfer check",
          "from": "current owner of the token",
          "to": "address to receive the ownership of the given token ID",
          "tokenId": "uint256 ID of the token to be transferred"
        }
      },
      "setApprovalForAll(address,bool)": {
        "details": "Sets or unsets the approval of a given operator An operator is allowed to transfer all tokens of the sender on their behalf.",
        "params": {
          "approved": "representing the status of the approval to be set",
          "operator": "operator address to set the approval"
        }
      },
      "supportsInterface(bytes4)": {
        "details": "See {IERC165-supportsInterface}. Time complexity O(1), guaranteed to always use less than 30 000 gas."
      },
      "symbol()": {
        "details": "Gets the token symbol.",
        "returns": {
          "_0": "string representing the token symbol"
        }
      },
      "tokenByIndex(uint256)": {
        "details": "Gets the token ID at a given index of all the tokens in this contract Reverts if the index is greater or equal to the total number of tokens.",
        "params": {
          "index": "uint256 representing the index to be accessed of the tokens list"
        },
        "returns": {
          "_0": "uint256 token ID at the given index of the tokens list"
        }
      },
      "tokenOfOwnerByIndex(address,uint256)": {
        "details": "Gets the token ID at a given index of the tokens list of the requested owner.",
        "params": {
          "index": "uint256 representing the index to be accessed of the requested tokens list",
          "owner": "address owning the tokens list to be accessed"
        },
        "returns": {
          "_0": "uint256 token ID at the given index of the tokens list owned by the requested address"
        }
      },
      "tokenURI(uint256)": {
        "details": "Returns the URI for a given token ID. May return an empty string. If a base URI is set (via {_setBaseURI}), it is added as a prefix to the token's own URI (via {_setTokenURI}). If there is a base URI but no token URI, the token's ID will be used as its URI when appending it to the base URI. This pattern for autogenerated token URIs can lead to large gas savings. .Examples |=== |`_setBaseURI()` |`_setTokenURI()` |`tokenURI()` | \"\" | \"\" | \"\" | \"\" | \"token.uri/123\" | \"token.uri/123\" | \"token.uri/\" | \"123\" | \"token.uri/123\" | \"token.uri/\" | \"\" | \"token.uri/<tokenId>\" |=== Requirements: - `tokenId` must exist."
      },
      "totalSupply()": {
        "details": "Gets the total amount of tokens stored by the contract.",
        "returns": {
          "_0": "uint256 representing the total amount of tokens"
        }
      },
      "transferFrom(address,address,uint256)": {
        "details": "Transfers the ownership of a given token ID to another address. Usage of this method is discouraged, use {safeTransferFrom} whenever possible. Requires the msg.sender to be the owner, approved, or operator.",
        "params": {
          "from": "current owner of the token",
          "to": "address to receive the ownership of the given token ID",
          "tokenId": "uint256 ID of the token to be transferred"
        }
      }
    }
  },
  "userdoc": {
    "methods": {}
  }
}