{
  "contractName": "RealEstateBidding",
  "abi": [
    {
      "inputs": [],
      "stateMutability": "nonpayable",
      "type": "constructor"
    },
    {
      "anonymous": false,
      "inputs": [
        {
          "indexed": true,
          "internalType": "address",
          "name": "owner",
          "type": "address"
        },
        {
          "indexed": true,
          "internalType": "address",
          "name": "approved",
          "type": "address"
        },
        {
          "indexed": true,
          "internalType": "uint256",
          "name": "tokenId",
          "type": "uint256"
        }
      ],
      "name": "Approval",
      "type": "event"
    },
    {
      "anonymous": false,
      "inputs": [
        {
          "indexed": true,
          "internalType": "address",
          "name": "owner",
          "type": "address"
        },
        {
          "indexed": true,
          "internalType": "address",
          "name": "operator",
          "type": "address"
        },
        {
          "indexed": false,
          "internalType": "bool",
          "name": "approved",
          "type": "bool"
        }
      ],
      "name": "ApprovalForAll",
      "type": "event"
    },
    {
      "anonymous": false,
      "inputs": [
        {
          "indexed": true,
          "internalType": "address",
          "name": "from",
          "type": "address"
        },
        {
          "indexed": true,
          "internalType": "address",
          "name": "to",
          "type": "address"
        },
        {
          "indexed": true,
          "internalType": "uint256",
          "name": "tokenId",
          "type": "uint256"
        }
      ],
      "name": "Transfer",
      "type": "event"
    },
    {
      "inputs": [
        {
          "internalType": "address",
          "name": "to",
          "type": "address"
        },
        {
          "internalType": "uint256",
          "name": "tokenId",
          "type": "uint256"
        }
      ],
      "name": "approve",
      "outputs": [],
      "stateMutability": "nonpayable",
      "type": "function"
    },
    {
      "inputs": [
        {
          "internalType": "address",
          "name": "owner",
          "type": "address"
        }
      ],
      "name": "balanceOf",
      "outputs": [
        {
          "internalType": "uint256",
          "name": "",
          "type": "uint256"
        }
      ],
      "stateMutability": "view",
      "type": "function"
    },
    {
      "inputs": [],
      "name": "baseURI",
      "outputs": [
        {
          "internalType": "string",
          "name": "",
          "type": "string"
        }
      ],
      "stateMutability": "view",
      "type": "function"
    },
    {
      "inputs": [
        {
          "internalType": "uint256",
          "name": "tokenId",
          "type": "uint256"
        }
      ],
      "name": "getApproved",
      "outputs": [
        {
          "internalType": "address",
          "name": "",
          "type": "address"
        }
      ],
      "stateMutability": "view",
      "type": "function"
    },
    {
      "inputs": [
        {
          "internalType": "address",
          "name": "owner",
          "type": "address"
        },
        {
          "internalType": "address",
          "name": "operator",
          "type": "address"
        }
      ],
      "name": "isApprovedForAll",
      "outputs": [
        {
          "internalType": "bool",
          "name": "",
          "type": "bool"
        }
      ],
      "stateMutability": "view",
      "type": "function"
    },
    {
      "inputs": [
        {
          "internalType": "uint256",
          "name": "",
          "type": "uint256"
        }
      ],
      "name": "market",
      "outputs": [
        {
          "internalType": "uint256",
          "name": "",
          "type": "uint256"
        }
      ],
      "stateMutability": "view",
      "type": "function"
    },
    {
      "inputs": [],
      "name": "name",
      "outputs": [
        {
          "internalType": "string",
          "name": "",
          "type": "string"
        }
      ],
      "stateMutability": "view",
      "type": "function"
    },
    {
      "inputs": [
        {
          "internalType": "uint256",
          "name": "tokenId",
          "type": "uint256"
        }
      ],
      "name": "ownerOf",
      "outputs": [
        {
          "internalType": "address",
          "name": "",
          "type": "address"
        }
      ],
      "stateMutability": "view",
      "type": "function"
    },
    {
      "inputs": [
        {
          "internalType": "address",
          "name": "from",
          "type": "address"
        },
        {
          "internalType": "address",
          "name": "to",
          "type": "address"
        },
        {
          "internalType": "uint256",
          "name": "tokenId",
          "type": "uint256"
        }
      ],
      "name": "safeTransferFrom",
      "outputs": [],
      "stateMutability": "nonpayable",
      "type": "function"
    },
    {
      "inputs": [
        {
          "internalType": "address",
          "name": "from",
          "type": "address"
        },
        {
          "internalType": "address",
          "name": "to",
          "type": "address"
        },
        {
          "internalType": "uint256",
          "name": "tokenId",
          "type": "uint256"
        },
        {
          "internalType": "bytes",
          "name": "_data",
          "type": "bytes"
        }
      ],
      "name": "safeTransferFrom",
      "outputs": [],
      "stateMutability": "nonpayable",
      "type": "function"
    },
    {
      "inputs": [
        {
          "internalType": "address",
          "name": "operator",
          "type": "address"
        },
        {
          "internalType": "bool",
          "name": "approved",
          "type": "bool"
        }
      ],
      "name": "setApprovalForAll",
      "outputs": [],
      "stateMutability": "nonpayable",
      "type": "function"
    },
    {
      "inputs": [
        {
          "internalType": "bytes4",
          "name": "interfaceId",
          "type": "bytes4"
        }
      ],
      "name": "supportsInterface",
      "outputs": [
        {
          "internalType": "bool",
          "name": "",
          "type": "bool"
        }
      ],
      "stateMutability": "view",
      "type": "function"
    },
    {
      "inputs": [],
      "name": "symbol",
      "outputs": [
        {
          "internalType": "string",
          "name": "",
          "type": "string"
        }
      ],
      "stateMutability": "view",
      "type": "function"
    },
    {
      "inputs": [
        {
          "internalType": "uint256",
          "name": "index",
          "type": "uint256"
        }
      ],
      "name": "tokenByIndex",
      "outputs": [
        {
          "internalType": "uint256",
          "name": "",
          "type": "uint256"
        }
      ],
      "stateMutability": "view",
      "type": "function"
    },
    {
      "inputs": [
        {
          "internalType": "address",
          "name": "owner",
          "type": "address"
        },
        {
          "internalType": "uint256",
          "name": "index",
          "type": "uint256"
        }
      ],
      "name": "tokenOfOwnerByIndex",
      "outputs": [
        {
          "internalType": "uint256",
          "name": "",
          "type": "uint256"
        }
      ],
      "stateMutability": "view",
      "type": "function"
    },
    {
      "inputs": [
        {
          "internalType": "uint256",
          "name": "tokenId",
          "type": "uint256"
        }
      ],
      "name": "tokenURI",
      "outputs": [
        {
          "internalType": "string",
          "name": "",
          "type": "string"
        }
      ],
      "stateMutability": "view",
      "type": "function"
    },
    {
      "inputs": [],
      "name": "totalSupply",
      "outputs": [
        {
          "internalType": "uint256",
          "name": "",
          "type": "uint256"
        }
      ],
      "stateMutability": "view",
      "type": "function"
    },
    {
      "inputs": [
        {
          "internalType": "address",
          "name": "from",
          "type": "address"
        },
        {
          "internalType": "address",
          "name": "to",
          "type": "address"
        },
        {
          "internalType": "uint256",
          "name": "tokenId",
          "type": "uint256"
        }
      ],
      "name": "transferFrom",
      "outputs": [],
      "stateMutability": "nonpayable",
      "type": "function"
    },
    {
      "inputs": [
        {
          "internalType": "uint256",
          "name": "propID",
          "type": "uint256"
        }
      ],
      "name": "mint",
      "outputs": [],
      "stateMutability": "nonpayable",
      "type": "function"
    },
    {
      "inputs": [
        {
          "internalType": "uint256",
          "name": "tokenId",
          "type": "uint256"
        },
        {
          "internalType": "address",
          "name": "realtor",
          "type": "address"
        }
      ],
      "name": "assignRealtor",
      "outputs": [],
      "stateMutability": "nonpayable",
      "type": "function"
    },
    {
      "inputs": [
        {
          "internalType": "uint256",
          "name": "tokenId",
          "type": "uint256"
        }
      ],
      "name": "putOnMarket",
      "outputs": [],
      "stateMutability": "nonpayable",
      "type": "function"
    },
    {
      "inputs": [
        {
          "internalType": "uint256",
          "name": "tokenId",
          "type": "uint256"
        },
        {
          "internalType": "uint256",
          "name": "amount",
          "type": "uint256"
        }
      ],
      "name": "bid",
      "outputs": [],
      "stateMutability": "nonpayable",
      "type": "function"
    },
    {
      "inputs": [
        {
          "internalType": "uint256",
          "name": "tokenId",
          "type": "uint256"
        }
      ],
      "name": "revealWinner",
      "outputs": [
        {
          "internalType": "address",
          "name": "",
          "type": "address"
        }
      ],
      "stateMutability": "nonpayable",
      "type": "function"
    },
    {
      "inputs": [
        {
          "internalType": "uint256",
          "name": "tokenId",
          "type": "uint256"
        }
      ],
      "name": "getHighestBid",
      "outputs": [
        {
          "internalType": "uint256",
          "name": "",
          "type": "uint256"
        }
      ],
      "stateMutability": "view",
      "type": "function"
    },
    {
      "inputs": [],
      "name": "getMarketSize",
      "outputs": [
        {
          "internalType": "uint256",
          "name": "",
          "type": "uint256"
        }
      ],
      "stateMutability": "view",
      "type": "function"
    },
    {
      "inputs": [
        {
          "internalType": "uint256",
          "name": "tokenId",
          "type": "uint256"
        }
      ],
      "name": "withdrawFromMarket",
      "outputs": [
        {
          "internalType": "bool",
          "name": "",
          "type": "bool"
        }
      ],
      "stateMutability": "nonpayable",
      "type": "function"
    }
  ],
  "bytecode": "0x60806040523480156200001157600080fd5b506040518060400160405280601181526020017f5265616c45737461746542696464696e670000000000000000000000000000008152506040518060400160405280600381526020017f5245420000000000000000000000000000000000000000000000000000000000815250620000966301ffc9a760e01b6200011860201b60201c565b8160069080519060200190620000ae92919062000221565b508060079080519060200190620000c792919062000221565b50620000e06380ac58cd60e01b6200011860201b60201c565b620000f8635b5e139f60e01b6200011860201b60201c565b6200011063780e9d6360e01b6200011860201b60201c565b5050620002d0565b63ffffffff60e01b817bffffffffffffffffffffffffffffffffffffffffffffffffffffffff19161415620001b5576040517f08c379a000000000000000000000000000000000000000000000000000000000815260040180806020018281038252601c8152602001807f4552433136353a20696e76616c696420696e746572666163652069640000000081525060200191505060405180910390fd5b6001600080837bffffffffffffffffffffffffffffffffffffffffffffffffffffffff19167bffffffffffffffffffffffffffffffffffffffffffffffffffffffff1916815260200190815260200160002060006101000a81548160ff02191690831515021790555050565b828054600181600116156101000203166002900490600052602060002090601f016020900481019282601f106200026457805160ff191683800117855562000295565b8280016001018555821562000295579182015b828111156200029457825182559160200191906001019062000277565b5b509050620002a49190620002a8565b5090565b620002cd91905b80821115620002c9576000816000905550600101620002af565b5090565b90565b6134e480620002e06000396000f3fe608060405234801561001057600080fd5b506004361061018e5760003560e01c806370a08231116100de578063a0712d6811610097578063bb98b3a211610071578063bb98b3a2146109e2578063c87b56dd14610a10578063e985e9c514610ab7578063fd27b51e14610b335761018e565b8063a0712d681461085f578063a22cb4651461088d578063b88d4fde146108dd5761018e565b806370a082311461064057806384ab6e62146106985780638ccb59e8146106de5780638f2886441461074c57806395d89b411461078e57806396575ea9146108115761018e565b806328861d221161014b5780634f6ccce7116101255780634f6ccce7146104d5578063598647f8146105175780636352211e1461054f5780636c0360eb146105bd5761018e565b806328861d22146103c35780632f745c591461040557806342842e0e146104675761018e565b806301ffc9a71461019357806306fdde03146101f8578063081812fc1461027b578063095ea7b3146102e957806318160ddd1461033757806323b872dd14610355575b600080fd5b6101de600480360360208110156101a957600080fd5b8101908080357bffffffffffffffffffffffffffffffffffffffffffffffffffffffff19169060200190929190505050610b51565b604051808215151515815260200191505060405180910390f35b610200610bb8565b6040518080602001828103825283818151815260200191508051906020019080838360005b83811015610240578082015181840152602081019050610225565b50505050905090810190601f16801561026d5780820380516001836020036101000a031916815260200191505b509250505060405180910390f35b6102a76004803603602081101561029157600080fd5b8101908080359060200190929190505050610c5a565b604051808273ffffffffffffffffffffffffffffffffffffffff1673ffffffffffffffffffffffffffffffffffffffff16815260200191505060405180910390f35b610335600480360360408110156102ff57600080fd5b81019080803573ffffffffffffffffffffffffffffffffffffffff16906020019092919080359060200190929190505050610cf5565b005b61033f610e39565b6040518082815260200191505060405180910390f35b6103c16004803603606081101561036b57600080fd5b81019080803573ffffffffffffffffffffffffffffffffffffffff169060200190929190803573ffffffffffffffffffffffffffffffffffffffff16906020019092919080359060200190929190505050610e4a565b005b6103ef600480360360208110156103d957600080fd5b8101908080359060200190929190505050610ec0565b6040518082815260200191505060405180910390f35b6104516004803603604081101561041b57600080fd5b81019080803573ffffffffffffffffffffffffffffffffffffffff16906020019092919080359060200190929190505050610ee1565b6040518082815260200191505060405180910390f35b6104d36004803603606081101561047d57600080fd5b81019080803573ffffffffffffffffffffffffffffffffffffffff169060200190929190803573ffffffffffffffffffffffffffffffffffffffff16906020019092919080359060200190929190505050610f3c565b005b610501600480360360208110156104eb57600080fd5b8101908080359060200190929190505050610f5c565b6040518082815260200191505060405180910390f35b61054d6004803603604081101561052d57600080fd5b810190808035906020019092919080359060200190929190505050610f7f565b005b61057b6004803603602081101561056557600080fd5b8101908080359060200190929190505050611102565b604051808273ffffffffffffffffffffffffffffffffffffffff1673ffffffffffffffffffffffffffffffffffffffff16815260200191505060405180910390f35b6105c5611139565b6040518080602001828103825283818151815260200191508051906020019080838360005b838110156106055780820151818401526020810190506105ea565b50505050905090810190601f1680156106325780820380516001836020036101000a031916815260200191505b509250505060405180910390f35b6106826004803603602081101561065657600080fd5b81019080803573ffffffffffffffffffffffffffffffffffffffff1690602001909291905050506111db565b6040518082815260200191505060405180910390f35b6106c4600480360360208110156106ae57600080fd5b81019080803590602001909291905050506112b0565b604051808215151515815260200191505060405180910390f35b61070a600480360360208110156106f457600080fd5b81019080803590602001909291905050506113cc565b604051808273ffffffffffffffffffffffffffffffffffffffff1673ffffffffffffffffffffffffffffffffffffffff16815260200191505060405180910390f35b6107786004803603602081101561076257600080fd5b81019080803590602001909291905050506115de565b6040518082815260200191505060405180910390f35b610796611601565b6040518080602001828103825283818151815260200191508051906020019080838360005b838110156107d65780820151818401526020810190506107bb565b50505050905090810190601f1680156108035780820380516001836020036101000a031916815260200191505b509250505060405180910390f35b61085d6004803603604081101561082757600080fd5b8101908080359060200190929190803573ffffffffffffffffffffffffffffffffffffffff1690602001909291905050506116a3565b005b61088b6004803603602081101561087557600080fd5b81019080803590602001909291905050506119a4565b005b6108db600480360360408110156108a357600080fd5b81019080803573ffffffffffffffffffffffffffffffffffffffff1690602001909291908035151590602001909291905050506119b1565b005b6109e0600480360360808110156108f357600080fd5b81019080803573ffffffffffffffffffffffffffffffffffffffff169060200190929190803573ffffffffffffffffffffffffffffffffffffffff169060200190929190803590602001909291908035906020019064010000000081111561095a57600080fd5b82018360208201111561096c57600080fd5b8035906020019184600183028401116401000000008311171561098e57600080fd5b91908080601f016020809104026020016040519081016040528093929190818152602001838380828437600081840152601f19601f820116905080830192505050505050509192919290505050611b69565b005b610a0e600480360360208110156109f857600080fd5b8101908080359060200190929190505050611be1565b005b610a3c60048036036020811015610a2657600080fd5b8101908080359060200190929190505050611cf6565b6040518080602001828103825283818151815260200191508051906020019080838360005b83811015610a7c578082015181840152602081019050610a61565b50505050905090810190601f168015610aa95780820380516001836020036101000a031916815260200191505b509250505060405180910390f35b610b1960048036036040811015610acd57600080fd5b81019080803573ffffffffffffffffffffffffffffffffffffffff169060200190929190803573ffffffffffffffffffffffffffffffffffffffff169060200190929190505050611fdf565b604051808215151515815260200191505060405180910390f35b610b3b612073565b6040518082815260200191505060405180910390f35b6000806000837bffffffffffffffffffffffffffffffffffffffffffffffffffffffff19167bffffffffffffffffffffffffffffffffffffffffffffffffffffffff1916815260200190815260200160002060009054906101000a900460ff169050919050565b606060068054600181600116156101000203166002900480601f016020809104026020016040519081016040528092919081815260200182805460018160011615610100020316600290048015610c505780601f10610c2557610100808354040283529160200191610c50565b820191906000526020600020905b815481529060010190602001808311610c3357829003601f168201915b5050505050905090565b6000610c6582612080565b610cba576040517f08c379a000000000000000000000000000000000000000000000000000000000815260040180806020018281038252602c815260200180613368602c913960400191505060405180910390fd5b6004600083815260200190815260200160002060009054906101000a900473ffffffffffffffffffffffffffffffffffffffff169050919050565b6000610d0082611102565b90508073ffffffffffffffffffffffffffffffffffffffff168373ffffffffffffffffffffffffffffffffffffffff161415610d87576040517f08c379a000000000000000000000000000000000000000000000000000000000815260040180806020018281038252602181526020018061342c6021913960400191505060405180910390fd5b8073ffffffffffffffffffffffffffffffffffffffff16610da661209d565b73ffffffffffffffffffffffffffffffffffffffff161480610dd55750610dd481610dcf61209d565b611fdf565b5b610e2a576040517f08c379a00000000000000000000000000000000000000000000000000000000081526004018080602001828103825260388152602001806132bb6038913960400191505060405180910390fd5b610e3483836120a5565b505050565b6000610e45600261215e565b905090565b610e5b610e5561209d565b82612173565b610eb0576040517f08c379a000000000000000000000000000000000000000000000000000000000815260040180806020018281038252603181526020018061344d6031913960400191505060405180910390fd5b610ebb838383612267565b505050565b600a8181548110610ecd57fe5b906000526020600020016000915090505481565b6000610f3482600160008673ffffffffffffffffffffffffffffffffffffffff1673ffffffffffffffffffffffffffffffffffffffff1681526020019081526020016000206124aa90919063ffffffff16565b905092915050565b610f5783838360405180602001604052806000815250611b69565b505050565b600080610f738360026124c490919063ffffffff16565b50905080915050919050565b600b600083815260200190815260200160002060000160149054906101000a900460ff16610ff8576040517f08c379a000000000000000000000000000000000000000000000000000000000815260040180806020018281038252603081526020018061319b6030913960400191505060405180910390fd5b80600b60008481526020019081526020016000206001016001015410611069576040517f08c379a00000000000000000000000000000000000000000000000000000000081526004018080602001828103825260408152602001806133bd6040913960400191505060405180910390fd5b60405180604001604052803373ffffffffffffffffffffffffffffffffffffffff16815260200182815250600b600084815260200190815260200160002060010160008201518160000160006101000a81548173ffffffffffffffffffffffffffffffffffffffff021916908373ffffffffffffffffffffffffffffffffffffffff160217905550602082015181600101559050505050565b60006111328260405180606001604052806029815260200161331d6029913960026124f39092919063ffffffff16565b9050919050565b606060098054600181600116156101000203166002900480601f0160208091040260200160405190810160405280929190818152602001828054600181600116156101000203166002900480156111d15780601f106111a6576101008083540402835291602001916111d1565b820191906000526020600020905b8154815290600101906020018083116111b457829003601f168201915b5050505050905090565b60008073ffffffffffffffffffffffffffffffffffffffff168273ffffffffffffffffffffffffffffffffffffffff161415611262576040517f08c379a000000000000000000000000000000000000000000000000000000000815260040180806020018281038252602a8152602001806132f3602a913960400191505060405180910390fd5b6112a9600160008473ffffffffffffffffffffffffffffffffffffffff1673ffffffffffffffffffffffffffffffffffffffff168152602001908152602001600020612512565b9050919050565b60003373ffffffffffffffffffffffffffffffffffffffff166112d283611102565b73ffffffffffffffffffffffffffffffffffffffff161461133e576040517f08c379a000000000000000000000000000000000000000000000000000000000815260040180806020018281038252602f815260200180613221602f913960400191505060405180910390fd5b6000600b600084815260200190815260200160002060000160146101000a81548160ff0219169083151502179055506000600b600084815260200190815260200160002060000160006101000a81548173ffffffffffffffffffffffffffffffffffffffff021916908373ffffffffffffffffffffffffffffffffffffffff16021790555060019050919050565b6000600b600083815260200190815260200160002060000160009054906101000a900473ffffffffffffffffffffffffffffffffffffffff1673ffffffffffffffffffffffffffffffffffffffff163373ffffffffffffffffffffffffffffffffffffffff1614611488576040517f08c379a000000000000000000000000000000000000000000000000000000000815260040180806020018281038252603f815260200180613250603f913960400191505060405180910390fd5b6000600b60008481526020019081526020016000206001016001015414156114b357600090506115d9565b6000600b600084815260200190815260200160002060000160146101000a81548160ff0219169083151502179055506001600b600084815260200190815260200160002060030160006101000a81548160ff021916908315150217905550600b600083815260200190815260200160002060010160000160009054906101000a900473ffffffffffffffffffffffffffffffffffffffff16600b600084815260200190815260200160002060030160016101000a81548173ffffffffffffffffffffffffffffffffffffffff021916908373ffffffffffffffffffffffffffffffffffffffff160217905550600b600083815260200190815260200160002060030160019054906101000a900473ffffffffffffffffffffffffffffffffffffffff1690505b919050565b6000600b6000838152602001908152602001600020600101600101549050919050565b606060078054600181600116156101000203166002900480601f0160208091040260200160405190810160405280929190818152602001828054600181600116156101000203166002900480156116995780601f1061166e57610100808354040283529160200191611699565b820191906000526020600020905b81548152906001019060200180831161167c57829003601f168201915b5050505050905090565b3373ffffffffffffffffffffffffffffffffffffffff166116c383611102565b73ffffffffffffffffffffffffffffffffffffffff161461172f576040517f08c379a000000000000000000000000000000000000000000000000000000000815260040180806020018281038252603181526020018061347e6031913960400191505060405180910390fd5b600073ffffffffffffffffffffffffffffffffffffffff1661175083611102565b73ffffffffffffffffffffffffffffffffffffffff1614156117da576040517f08c379a000000000000000000000000000000000000000000000000000000000815260040180806020018281038252601f8152602001807f5265616c537461746562696464696e673a204e6f207375636820746f6b656e0081525060200191505060405180910390fd5b6040518060a001604052808273ffffffffffffffffffffffffffffffffffffffff1681526020016000151581526020016040518060400160405280600073ffffffffffffffffffffffffffffffffffffffff16815260200160008152508152602001600015158152602001600073ffffffffffffffffffffffffffffffffffffffff16815250600b600084815260200190815260200160002060008201518160000160006101000a81548173ffffffffffffffffffffffffffffffffffffffff021916908373ffffffffffffffffffffffffffffffffffffffff16021790555060208201518160000160146101000a81548160ff02191690831515021790555060408201518160010160008201518160000160006101000a81548173ffffffffffffffffffffffffffffffffffffffff021916908373ffffffffffffffffffffffffffffffffffffffff16021790555060208201518160010155505060608201518160030160006101000a81548160ff02191690831515021790555060808201518160030160016101000a81548173ffffffffffffffffffffffffffffffffffffffff021916908373ffffffffffffffffffffffffffffffffffffffff1602179055509050505050565b6119ae3382612527565b50565b6119b961209d565b73ffffffffffffffffffffffffffffffffffffffff168273ffffffffffffffffffffffffffffffffffffffff161415611a5a576040517f08c379a00000000000000000000000000000000000000000000000000000000081526004018080602001828103825260198152602001807f4552433732313a20617070726f766520746f2063616c6c65720000000000000081525060200191505060405180910390fd5b8060056000611a6761209d565b73ffffffffffffffffffffffffffffffffffffffff1673ffffffffffffffffffffffffffffffffffffffff16815260200190815260200160002060008473ffffffffffffffffffffffffffffffffffffffff1673ffffffffffffffffffffffffffffffffffffffff16815260200190815260200160002060006101000a81548160ff0219169083151502179055508173ffffffffffffffffffffffffffffffffffffffff16611b1461209d565b73ffffffffffffffffffffffffffffffffffffffff167f17307eab39ab6107e8899845ad3d59bd9653f200f220920489ca2b5937696c3183604051808215151515815260200191505060405180910390a35050565b611b7a611b7461209d565b83612173565b611bcf576040517f08c379a000000000000000000000000000000000000000000000000000000000815260040180806020018281038252603181526020018061344d6031913960400191505060405180910390fd5b611bdb8484848461271b565b50505050565b600b600082815260200190815260200160002060000160009054906101000a900473ffffffffffffffffffffffffffffffffffffffff1673ffffffffffffffffffffffffffffffffffffffff163373ffffffffffffffffffffffffffffffffffffffff1614611c9b576040517f08c379a000000000000000000000000000000000000000000000000000000000815260040180806020018281038252603f815260200180613250603f913960400191505060405180910390fd5b6001600b600083815260200190815260200160002060000160146101000a81548160ff021916908315150217905550600a81908060018154018082558091505060019003906000526020600020016000909190919091505550565b6060611d0182612080565b611d56576040517f08c379a000000000000000000000000000000000000000000000000000000000815260040180806020018281038252602f8152602001806133fd602f913960400191505060405180910390fd5b6060600860008481526020019081526020016000208054600181600116156101000203166002900480601f016020809104026020016040519081016040528092919081815260200182805460018160011615610100020316600290048015611dff5780601f10611dd457610100808354040283529160200191611dff565b820191906000526020600020905b815481529060010190602001808311611de257829003601f168201915b50505050509050600060098054600181600116156101000203166002900490501415611e2e5780915050611fda565b600081511115611f07576009816040516020018083805460018160011615610100020316600290048015611e995780601f10611e77576101008083540402835291820191611e99565b820191906000526020600020905b815481529060010190602001808311611e85575b505082805190602001908083835b60208310611eca5780518252602082019150602081019050602083039250611ea7565b6001836020036101000a03801982511681845116808217855250505050505090500192505050604051602081830303815290604052915050611fda565b6009611f128461278d565b6040516020018083805460018160011615610100020316600290048015611f705780601f10611f4e576101008083540402835291820191611f70565b820191906000526020600020905b815481529060010190602001808311611f5c575b505082805190602001908083835b60208310611fa15780518252602082019150602081019050602083039250611f7e565b6001836020036101000a038019825116818451168082178552505050505050905001925050506040516020818303038152906040529150505b919050565b6000600560008473ffffffffffffffffffffffffffffffffffffffff1673ffffffffffffffffffffffffffffffffffffffff16815260200190815260200160002060008373ffffffffffffffffffffffffffffffffffffffff1673ffffffffffffffffffffffffffffffffffffffff16815260200190815260200160002060009054906101000a900460ff16905092915050565b6000600a80549050905090565b60006120968260026128d490919063ffffffff16565b9050919050565b600033905090565b816004600083815260200190815260200160002060006101000a81548173ffffffffffffffffffffffffffffffffffffffff021916908373ffffffffffffffffffffffffffffffffffffffff160217905550808273ffffffffffffffffffffffffffffffffffffffff1661211883611102565b73ffffffffffffffffffffffffffffffffffffffff167f8c5be1e5ebec7d5bd14f71427d1e84f3dd0314c0f7b2291e5b200ac8c7c3b92560405160405180910390a45050565b600061216c826000016128ee565b9050919050565b600061217e82612080565b6121d3576040517f08c379a000000000000000000000000000000000000000000000000000000000815260040180806020018281038252602c81526020018061328f602c913960400191505060405180910390fd5b60006121de83611102565b90508073ffffffffffffffffffffffffffffffffffffffff168473ffffffffffffffffffffffffffffffffffffffff16148061224d57508373ffffffffffffffffffffffffffffffffffffffff1661223584610c5a565b73ffffffffffffffffffffffffffffffffffffffff16145b8061225e575061225d8185611fdf565b5b91505092915050565b8273ffffffffffffffffffffffffffffffffffffffff1661228782611102565b73ffffffffffffffffffffffffffffffffffffffff16146122f3576040517f08c379a00000000000000000000000000000000000000000000000000000000081526004018080602001828103825260298152602001806133946029913960400191505060405180910390fd5b600073ffffffffffffffffffffffffffffffffffffffff168273ffffffffffffffffffffffffffffffffffffffff161415612379576040517f08c379a00000000000000000000000000000000000000000000000000000000081526004018080602001828103825260248152602001806131fd6024913960400191505060405180910390fd5b6123848383836128ff565b61238f6000826120a5565b6123e081600160008673ffffffffffffffffffffffffffffffffffffffff1673ffffffffffffffffffffffffffffffffffffffff16815260200190815260200160002061290490919063ffffffff16565b5061243281600160008573ffffffffffffffffffffffffffffffffffffffff1673ffffffffffffffffffffffffffffffffffffffff16815260200190815260200160002061291e90919063ffffffff16565b50612449818360026129389092919063ffffffff16565b50808273ffffffffffffffffffffffffffffffffffffffff168473ffffffffffffffffffffffffffffffffffffffff167fddf252ad1be2c89b69c2b068fc378daa952ba7f163c4a11628f55a4df523b3ef60405160405180910390a4505050565b60006124b9836000018361296d565b60001c905092915050565b6000806000806124d786600001866129f0565b915091508160001c8160001c8090509350935050509250929050565b6000612506846000018460001b84612a89565b60001c90509392505050565b600061252082600001612b7f565b9050919050565b600073ffffffffffffffffffffffffffffffffffffffff168273ffffffffffffffffffffffffffffffffffffffff1614156125ca576040517f08c379a00000000000000000000000000000000000000000000000000000000081526004018080602001828103825260208152602001807f4552433732313a206d696e7420746f20746865207a65726f206164647265737381525060200191505060405180910390fd5b6125d381612080565b15612646576040517f08c379a000000000000000000000000000000000000000000000000000000000815260040180806020018281038252601c8152602001807f4552433732313a20746f6b656e20616c7265616479206d696e7465640000000081525060200191505060405180910390fd5b612652600083836128ff565b6126a381600160008573ffffffffffffffffffffffffffffffffffffffff1673ffffffffffffffffffffffffffffffffffffffff16815260200190815260200160002061291e90919063ffffffff16565b506126ba818360026129389092919063ffffffff16565b50808273ffffffffffffffffffffffffffffffffffffffff16600073ffffffffffffffffffffffffffffffffffffffff167fddf252ad1be2c89b69c2b068fc378daa952ba7f163c4a11628f55a4df523b3ef60405160405180910390a45050565b612726848484612267565b61273284848484612b90565b612787576040517f08c379a00000000000000000000000000000000000000000000000000000000081526004018080602001828103825260328152602001806131cb6032913960400191505060405180910390fd5b50505050565b606060008214156127d5576040518060400160405280600181526020017f300000000000000000000000000000000000000000000000000000000000000081525090506128cf565b600082905060005b600082146127ff578080600101915050600a82816127f757fe5b0491506127dd565b60608167ffffffffffffffff8111801561281857600080fd5b506040519080825280601f01601f19166020018201604052801561284b5781602001600182028036833780820191505090505b50905060006001830390508593505b600084146128c757600a848161286c57fe5b0660300160f81b8282806001900393508151811061288657fe5b60200101907effffffffffffffffffffffffffffffffffffffffffffffffffffffffffffff1916908160001a905350600a84816128bf57fe5b04935061285a565b819450505050505b919050565b60006128e6836000018360001b612eb3565b905092915050565b600081600001805490509050919050565b505050565b6000612916836000018360001b612ed6565b905092915050565b6000612930836000018360001b612fbe565b905092915050565b6000612964846000018460001b8473ffffffffffffffffffffffffffffffffffffffff1660001b61302e565b90509392505050565b6000818360000180549050116129ce576040517f08c379a00000000000000000000000000000000000000000000000000000000081526004018080602001828103825260228152602001806131796022913960400191505060405180910390fd5b8260000182815481106129dd57fe5b9060005260206000200154905092915050565b60008082846000018054905011612a52576040517f08c379a00000000000000000000000000000000000000000000000000000000081526004018080602001828103825260228152602001806133466022913960400191505060405180910390fd5b6000846000018481548110612a6357fe5b906000526020600020906002020190508060000154816001015492509250509250929050565b60008084600101600085815260200190815260200160002054905060008114158390612b50576040517f08c379a00000000000000000000000000000000000000000000000000000000081526004018080602001828103825283818151815260200191508051906020019080838360005b83811015612b15578082015181840152602081019050612afa565b50505050905090810190601f168015612b425780820380516001836020036101000a031916815260200191505b509250505060405180910390fd5b50846000016001820381548110612b6357fe5b9060005260206000209060020201600101549150509392505050565b600081600001805490509050919050565b6000612bb18473ffffffffffffffffffffffffffffffffffffffff1661310a565b612bbe5760019050612eab565b600060608573ffffffffffffffffffffffffffffffffffffffff1663150b7a0260e01b612be961209d565b898888604051602401808573ffffffffffffffffffffffffffffffffffffffff1673ffffffffffffffffffffffffffffffffffffffff1681526020018473ffffffffffffffffffffffffffffffffffffffff1673ffffffffffffffffffffffffffffffffffffffff16815260200183815260200180602001828103825283818151815260200191508051906020019080838360005b83811015612c99578082015181840152602081019050612c7e565b50505050905090810190601f168015612cc65780820380516001836020036101000a031916815260200191505b5095505050505050604051602081830303815290604052907bffffffffffffffffffffffffffffffffffffffffffffffffffffffff19166020820180517bffffffffffffffffffffffffffffffffffffffffffffffffffffffff83818316178352505050506040518082805190602001908083835b60208310612d5e5780518252602082019150602081019050602083039250612d3b565b6001836020036101000a0380198251168184511680821785525050505050509050019150506000604051808303816000865af19150503d8060008114612dc0576040519150601f19603f3d011682016040523d82523d6000602084013e612dc5565b606091505b509150915081612e3357600081511115612de25780518082602001fd5b6040517f08c379a00000000000000000000000000000000000000000000000000000000081526004018080602001828103825260328152602001806131cb6032913960400191505060405180910390fd5b6000818060200190516020811015612e4a57600080fd5b8101908080519060200190929190505050905063150b7a0260e01b7bffffffffffffffffffffffffffffffffffffffffffffffffffffffff1916817bffffffffffffffffffffffffffffffffffffffffffffffffffffffff19161493505050505b949350505050565b600080836001016000848152602001908152602001600020541415905092915050565b60008083600101600084815260200190815260200160002054905060008114612fb25760006001820390506000600186600001805490500390506000866000018281548110612f2157fe5b9060005260206000200154905080876000018481548110612f3e57fe5b9060005260206000200181905550600183018760010160008381526020019081526020016000208190555086600001805480612f7657fe5b60019003818190600052602060002001600090559055866001016000878152602001908152602001600020600090556001945050505050612fb8565b60009150505b92915050565b6000612fca8383613155565b613023578260000182908060018154018082558091505060019003906000526020600020016000909190919091505582600001805490508360010160008481526020019081526020016000208190555060019050613028565b600090505b92915050565b60008084600101600085815260200190815260200160002054905060008114156130d557846000016040518060400160405280868152602001858152509080600181540180825580915050600190039060005260206000209060020201600090919091909150600082015181600001556020820151816001015550508460000180549050856001016000868152602001908152602001600020819055506001915050613103565b828560000160018303815481106130e857fe5b90600052602060002090600202016001018190555060009150505b9392505050565b60008060007fc5d2460186f7233c927e7db2dcc703c0e500b653ca82273b7bfad8045d85a47060001b9050833f915080821415801561314c57506000801b8214155b92505050919050565b60008083600101600084815260200190815260200160002054141590509291505056fe456e756d657261626c655365743a20696e646578206f7574206f6620626f756e64735265616c537461746562696464696e673a50726f7065727479206973206e6f206c6f6e676572206f6e204d61726b65744552433732313a207472616e7366657220746f206e6f6e20455243373231526563656976657220696d706c656d656e7465724552433732313a207472616e7366657220746f20746865207a65726f20616464726573735265616c537461746562696464696e673a2043616e206e6f74207769746864726177206f746865727320746f6b656e5265616c537461746562696464696e673a204f6e6c792061737369676e6564207265616c746f722063616e2063616c6c20746869732066756e6374696f6e2e4552433732313a206f70657261746f7220717565727920666f72206e6f6e6578697374656e7420746f6b656e4552433732313a20617070726f76652063616c6c6572206973206e6f74206f776e6572206e6f7220617070726f76656420666f7220616c6c4552433732313a2062616c616e636520717565727920666f7220746865207a65726f20616464726573734552433732313a206f776e657220717565727920666f72206e6f6e6578697374656e7420746f6b656e456e756d657261626c654d61703a20696e646578206f7574206f6620626f756e64734552433732313a20617070726f76656420717565727920666f72206e6f6e6578697374656e7420746f6b656e4552433732313a207472616e73666572206f6620746f6b656e2074686174206973206e6f74206f776e5265616c537461746562696464696e673a546865726520697320616c72656164792061206869676865737420626964206f6e20746869732070726f70657274794552433732314d657461646174613a2055524920717565727920666f72206e6f6e6578697374656e7420746f6b656e4552433732313a20617070726f76616c20746f2063757272656e74206f776e65724552433732313a207472616e736665722063616c6c6572206973206e6f74206f776e6572206e6f7220617070726f7665645265616c537461746562696464696e673a2043616e206e6f742061737369676e20666f72206f746865727320746f6b656ea2646970667358221220cde631324eb1aa90b270e953cb569fe91ec1c34b9a3562b17a0f4412ef58a4c064736f6c634300060a0033",
  "immutableReferences": {},
  "source": "//SPDX-License-Identifier: MIT\n\npragma solidity ^0.6.0;\n\nimport \"./ERC721.sol\";\n\ncontract RealEstateBidding is ERC721 {\n    // struct for each bid\n    struct Bid {\n        address bidAddress;\n        uint256 bidAmount;\n    }\n\n    //Struct for each bid process\n    struct SingleBidProcess {\n        address realtor;\n        bool onMarket;\n        Bid highestBid;\n        bool winnerRevealed;\n        address winner;\n    }\n\n    //tokens On market\n    uint256[] public market;\n    //mapping from token Ids to bid process\n    mapping(uint256 => SingleBidProcess) allBids;\n\n    constructor() public ERC721(\"RealEstateBidding\", \"REB\") {}\n\n    function mint(uint256 propID) public {\n        _mint(msg.sender, propID);\n    }\n\n    //Function to assign a realtor by owner\n    function assignRealtor(uint256 tokenId, address realtor) public {\n        require(\n            ownerOf(tokenId) == msg.sender,\n            \"RealStatebidding: Can not assign for others token\"\n        );\n\n        require(\n            ownerOf(tokenId) != address(0),\n            \"RealStatebidding: No such token\"\n        );\n\n        allBids[tokenId] = SingleBidProcess(\n            realtor,\n            false,\n            Bid(address(0), 0),\n            false,\n            address(0)\n        );\n    }\n\n    //function to place realstate on market by realtor\n    function putOnMarket(uint256 tokenId) public {\n        //check if token exists\n        //check if sender is the assigned realtor\n        require(\n            msg.sender == allBids[tokenId].realtor,\n            \"RealStatebidding: Only assigned realtor can call this function.\"\n        );\n        //change on market to true on bidProcess struct\n        allBids[tokenId].onMarket = true;\n        market.push(tokenId);\n        // Fire event on market\n        // Event Firing ---->\n    }\n\n    //biding on properties\n    function bid(uint256 tokenId, uint256 amount) public {\n        //check if tokenId is still on market\n        require(\n            allBids[tokenId].onMarket,\n            \"RealStatebidding:Property is no longer on Market\"\n        );\n        //check if amount is higher than highest bid\n        require(\n            allBids[tokenId].highestBid.bidAmount < amount,\n            \"RealStatebidding:There is already a highest bid on this property\"\n        );\n        //replace highest bid with new bid\n        allBids[tokenId].highestBid = Bid(msg.sender, amount);\n        //push bid to array bids\n        //Fire new high bid\n        // Event Firing ---->\n    }\n\n    // Reveal winner function\n    function revealWinner(uint256 tokenId) public returns (address) {\n        // Check is caller the realtor\n        require(\n            msg.sender == allBids[tokenId].realtor,\n            \"RealStatebidding: Only assigned realtor can call this function.\"\n        );\n\n        // check if there is a bid on property\n        if (allBids[tokenId].highestBid.bidAmount == 0) {\n            return address(0);\n        } else {\n            allBids[tokenId].onMarket = false;\n            allBids[tokenId].winnerRevealed = true;\n            allBids[tokenId].winner = allBids[tokenId].highestBid.bidAddress;\n            return allBids[tokenId].winner;\n            //Fire new high bid\n            // Event Firing ---->\n        }\n    }\n\n    // function view Bids on my property\n    function getHighestBid(uint256 tokenId) public view returns (uint256) {\n        return allBids[tokenId].highestBid.bidAmount;\n    }\n\n    // function get market size\n    function getMarketSize() public view returns (uint256) {\n        //Can only view bids On my property\n        return market.length;\n    }\n\n    // function to withdraw property from market\n    function withdrawFromMarket(uint256 tokenId) public returns (bool) {\n        //Can only wwithdraw for my property\n        require(\n            ownerOf(tokenId) == msg.sender,\n            \"RealStatebidding: Can not withdraw others token\"\n        );\n\n        allBids[tokenId].onMarket = false;\n        allBids[tokenId].realtor = address(0);\n\n        //Fire event property withdraw from market\n        // Fire Event ----->\n        return true;\n    }\n}\n",
  "sourcePath": "C:\\Users\\majid\\Desktop\\GBC\\Design Patterns for Blockchain\\Group Assignment\\RealState-Bidding-DAPP\\Solidity-Backend\\contracts\\RealEstateBidding.sol",
  "compiler": {
    "name": "solc",
    "version": "0.6.10+commit.00c0fcaf.Emscripten.clang"
  },
  "schemaVersion": "3.2.0",
  "updatedAt": "2020-06-17T20:10:55.134Z",
  "devdoc": {
    "methods": {
      "approve(address,uint256)": {
        "details": "Approves another address to transfer the given token ID The zero address indicates there is no approved address. There can only be one approved address per token at a given time. Can only be called by the token owner or an approved operator.",
        "params": {
          "to": "address to be approved for the given token ID",
          "tokenId": "uint256 ID of the token to be approved"
        }
      },
      "balanceOf(address)": {
        "details": "Gets the balance of the specified address.",
        "params": {
          "owner": "address to query the balance of"
        },
        "returns": {
          "_0": "uint256 representing the amount owned by the passed address"
        }
      },
      "baseURI()": {
        "details": "Returns the base URI set via {_setBaseURI}. This will be automatically added as a prefix in {tokenURI} to each token's URI, or to the token ID if no specific URI is set for that token ID."
      },
      "getApproved(uint256)": {
        "details": "Gets the approved address for a token ID, or zero if no address set Reverts if the token ID does not exist.",
        "params": {
          "tokenId": "uint256 ID of the token to query the approval of"
        },
        "returns": {
          "_0": "address currently approved for the given token ID"
        }
      },
      "isApprovedForAll(address,address)": {
        "details": "Tells whether an operator is approved by a given owner.",
        "params": {
          "operator": "operator address which you want to query the approval of",
          "owner": "owner address which you want to query the approval of"
        },
        "returns": {
          "_0": "bool whether the given operator is approved by the given owner"
        }
      },
      "name()": {
        "details": "Gets the token name.",
        "returns": {
          "_0": "string representing the token name"
        }
      },
      "ownerOf(uint256)": {
        "details": "Gets the owner of the specified token ID.",
        "params": {
          "tokenId": "uint256 ID of the token to query the owner of"
        },
        "returns": {
          "_0": "address currently marked as the owner of the given token ID"
        }
      },
      "safeTransferFrom(address,address,uint256)": {
        "details": "Safely transfers the ownership of a given token ID to another address If the target address is a contract, it must implement {IERC721Receiver-onERC721Received}, which is called upon a safe transfer, and return the magic value `bytes4(keccak256(\"onERC721Received(address,address,uint256,bytes)\"))`; otherwise, the transfer is reverted. Requires the msg.sender to be the owner, approved, or operator",
        "params": {
          "from": "current owner of the token",
          "to": "address to receive the ownership of the given token ID",
          "tokenId": "uint256 ID of the token to be transferred"
        }
      },
      "safeTransferFrom(address,address,uint256,bytes)": {
        "details": "Safely transfers the ownership of a given token ID to another address If the target address is a contract, it must implement {IERC721Receiver-onERC721Received}, which is called upon a safe transfer, and return the magic value `bytes4(keccak256(\"onERC721Received(address,address,uint256,bytes)\"))`; otherwise, the transfer is reverted. Requires the _msgSender() to be the owner, approved, or operator",
        "params": {
          "_data": "bytes data to send along with a safe transfer check",
          "from": "current owner of the token",
          "to": "address to receive the ownership of the given token ID",
          "tokenId": "uint256 ID of the token to be transferred"
        }
      },
      "setApprovalForAll(address,bool)": {
        "details": "Sets or unsets the approval of a given operator An operator is allowed to transfer all tokens of the sender on their behalf.",
        "params": {
          "approved": "representing the status of the approval to be set",
          "operator": "operator address to set the approval"
        }
      },
      "supportsInterface(bytes4)": {
        "details": "See {IERC165-supportsInterface}. Time complexity O(1), guaranteed to always use less than 30 000 gas."
      },
      "symbol()": {
        "details": "Gets the token symbol.",
        "returns": {
          "_0": "string representing the token symbol"
        }
      },
      "tokenByIndex(uint256)": {
        "details": "Gets the token ID at a given index of all the tokens in this contract Reverts if the index is greater or equal to the total number of tokens.",
        "params": {
          "index": "uint256 representing the index to be accessed of the tokens list"
        },
        "returns": {
          "_0": "uint256 token ID at the given index of the tokens list"
        }
      },
      "tokenOfOwnerByIndex(address,uint256)": {
        "details": "Gets the token ID at a given index of the tokens list of the requested owner.",
        "params": {
          "index": "uint256 representing the index to be accessed of the requested tokens list",
          "owner": "address owning the tokens list to be accessed"
        },
        "returns": {
          "_0": "uint256 token ID at the given index of the tokens list owned by the requested address"
        }
      },
      "tokenURI(uint256)": {
        "details": "Returns the URI for a given token ID. May return an empty string. If a base URI is set (via {_setBaseURI}), it is added as a prefix to the token's own URI (via {_setTokenURI}). If there is a base URI but no token URI, the token's ID will be used as its URI when appending it to the base URI. This pattern for autogenerated token URIs can lead to large gas savings. .Examples |=== |`_setBaseURI()` |`_setTokenURI()` |`tokenURI()` | \"\" | \"\" | \"\" | \"\" | \"token.uri/123\" | \"token.uri/123\" | \"token.uri/\" | \"123\" | \"token.uri/123\" | \"token.uri/\" | \"\" | \"token.uri/<tokenId>\" |=== Requirements: - `tokenId` must exist."
      },
      "totalSupply()": {
        "details": "Gets the total amount of tokens stored by the contract.",
        "returns": {
          "_0": "uint256 representing the total amount of tokens"
        }
      },
      "transferFrom(address,address,uint256)": {
        "details": "Transfers the ownership of a given token ID to another address. Usage of this method is discouraged, use {safeTransferFrom} whenever possible. Requires the msg.sender to be the owner, approved, or operator.",
        "params": {
          "from": "current owner of the token",
          "to": "address to receive the ownership of the given token ID",
          "tokenId": "uint256 ID of the token to be transferred"
        }
      }
    }
  },
  "userdoc": {
    "methods": {}
  }
}